:100000000C949E030C94C62E0C94D6030C94D60329
:100010000C94D6030C94D6030C94D6030C94D603FC
:100020000C94D6030C94D6030C948C2C0C94DD2DDC
:100030000C94412C0C94D6030C94D6030C94D60348
:100040000C94D6030C94D6030C94D6030C94D603CC
:100050000C94D6030C94682C0C94D6030C94D60301
:100060000C94D6030C94D6030C94D6030C94D603AC
:100070000C94D6030C94D6030C94D6030C94D6039C
:100080000C94D6030C94D6030C94D6030C94D6038C
:100090000C94D6030C94D6030C94D6030C94D6037C
:1000A0000C94D6030C94D6030C94D6030631FF09A6
:1000B00074A1010975150026FF00952075088102BD
:1000C000C005010980A101850319012AB7001501A6
:1000D00026B700950175108100C0050C0901A1012A
:1000E000850419012AA002150126A00295017510A8
:1000F0008100C005010906A101050719E029E715DE
:100100000025019508750181029501750881010599
:1001100007190029FF150026FF00950675088100C4
:10012000050819012905150025019505750191029C
:10013000950175039101C054617267657420636F06
:100140006E6E65637465640D0A0054617267657450
:1001500020646973636F6E6E65637465642C2074CC
:1001600068726F74746C696E6720636F6E6E65631E
:1001700074696F6E20617474656D7074730D0A001C
:10018000726762206D617472697820736574207380
:1001900070656564205B25735D3A2025750A0072E1
:1001A0006762206D6174726978207365742068736A
:1001B00076205B25735D3A2025752C25752C2575D9
:1001C0000A00726762206D6174726978206D6F64D5
:1001D00065205B25735D3A2025750A0009025400ED
:1001E000030100A0FA090400000103010100092134
:1001F00011010001224400070581030800010904E0
:100200000100010300000009211101000122320058
:100210000705820320000109040200010300000019
:1002200009211101000122150007058303200001A7
:10023000120100020000000810CB567200070102F4
:100240000001180349007200690073002000520089
:10025000650076002E002000370000000E034B00E2
:1002600065006500620069006F0000000403090476
:100270005B435D005B445D005B535D005B575D006D
:100280005B525D00726762206D61747269782074E0
:100290006F67676C65205B25735D3A207267625FEC
:1002A0006D61747269785F636F6E6669672E656EE3
:1002B00061626C65203D2025750A00000101010185
:1002C0000101010101020202020202020202030311
:1002D00003030303030304040404040404050505E1
:1002E00005050606060606070707070708080808A3
:1002F000090909090A0A0A0B0B0B0C0C0C0D0D0D50
:100300000E0E0E0F0F0F10101111111212131314E5
:1003100014151516161717181819191A1A1B1B1C5D
:100320001D1D1E1E1F2020212222232424252626B7
:10033000272829292A2B2C2D2D2E2F3031323233EC
:100340003435363738393A3B3C3D3E3F40414243F5
:100350004445464748494A4C4D4E4F5051535455D9
:100360005658595A5B5D5E5F616264656668696B89
:100370006C6D6F7072737577787A7B7D7E80828307
:100380008587888A8C8E8F91939596989A9C9EA04B
:10039000A2A3A5A7A9ABADAFB1B3B5B7BABCBEC058
:1003A000C2C4C6C9CBCDCFD1D4D6D8DBDDDFE2E421
:1003B000E7E9EBEEF0F3F5F8FAFDFF6565636F6EC4
:1003C0006669675F7570646174655F7267625F6DAF
:1003D00061747269785F64656661756C740A007235
:1003E00067625F6D61747269785F636F6E6669677B
:1003F0002E666C616773203D2025640A0072676277
:100400005F6D61747269785F636F6E6669672E7382
:1004100070656564203D2025640A007267625F6D27
:1004200061747269785F636F6E6669672E68737650
:100430002E76203D2025640A007267625F6D61742C
:100440007269785F636F6E6669672E6873762E7364
:10045000203D2025640A007267625F6D61747269D5
:10046000785F636F6E6669672E6873762E68203DCD
:100470002025640A007267625F6D61747269785F3B
:10048000636F6E6669672E6D6F6465203D2025641D
:100490000A007267625F6D61747269785F636F6E84
:1004A0006669672E656E61626C65203D2025640A71
:1004B000007267625F6D61747269785F636F6E6608
:1004C000696720454550524F4D0A007267625F6D63
:1004D00061747269785F696E69745F647269766568
:1004E0007273207267625F6D61747269785F636FA7
:1004F0006E6669672E6D6F6465203D20302E205733
:10050000726974652064656661756C742076616CCF
:1005100075657320746F20454550524F4D2E0A006B
:1005200073757370656E64696E67206B6579626F51
:100530006172640D0A000A0025303862003A20001A
:1005400025303258000A722F63203031323334356F
:1005500036370A006C65645F7461736B3A2025302E
:1005600032580A004661696C656420746F206578B2
:1005700065637574652025730A00167C1E001F00D4
:100580002000210022002B0014001A000800150092
:100590001700E00004001600070009000A00E1004F
:1005A0001D001B0006001900050000000000E3000C
:1005B000777C28004A002A00270026002500240016
:1005C00023004C00130012000C0018001C00340023
:1005D00033000F000E000D000B00E500380037005F
:1005E00036001000110000000000E600787C2C00AE
:1005F0004D0035021E021F02200221022202350098
:10060000010052000100007C01004C00500051002C
:100610004F0001002F004378037C0100010001001E
:100620002F0200000000010001004C0026024B00D8
:10063000270226022502240223024E0062006100E6
:1006400060005F00010031022E025E005D005C0070
:10065000300001002D005B005A00590030020000FC
:100660000000620001004C00270245003A003B00F8
:100670003C003D003E0042781E021F022002210283
:1006800022024378AC00AB00A9004B002D02A80069
:10069000AD00AE00AA004E002D00000000000100D9
:1006A00001000100260244004300420041004000D6
:1006B0003F00007C2702260225022402230231008B
:1006C0004978477845784A002E00037C4A78487874
:1006D00046784D002E0200000000010001000100DC
:1006E00001000A002530325820006B6579626F6185
:1006F00072645F7265706F72743A202530325820D0
:100700007C20004F6E6573686F743A206163746972
:1007100076653A2025640A0044454255473A2064EC
:10072000697361626C65642E0A0044454255473A1C
:1007300020656E61626C65642E0A000011241FBE84
:10074000CFEFDAE0DEBFCDBF04B603FE18C0809164
:10075000D0059091D105A091D205B091D3058730F5
:10076000904BA740B04B59F41092D0051092D10590
:100770001092D2051092D305E0E0F8E3099525E048
:10078000A0E4B3E001C01D92A03DB207E1F713E081
:10079000A0E0B1E0E0EEF3E602C005900D92A034D7
:1007A000B107D9F70E9411270C9480310C940000F6
:1007B000FF93EF93E0914003F0914103309709F0EC
:1007C0000995EF91FF910895FC018591803011F01A
:1007D000EFDFFBCF0895FF27E0E230E247FF0CC0D8
:1007E000419597FF09C0EDE26095709580959095D1
:1007F000611D711D811D911D27FF02C0219530E3F0
:1008000050E2AA27660F771F881F991FAA1FA417F7
:1008100010F0A41B63955A95A9F7AA3008F0A95FB8
:10082000A05DAF93F395611571058105910541F7C1
:10083000ED3211F4EF93F395F21718F43F93F3951B
:10084000FBCF8F91B5DFFA95E1F70895E991F99122
:100850008591803021F0853219F0AADFF9CF089513
:1008600020E0E89455915532C1F3503311F4689467
:1008700055915A3348F4505390F3220F022E220F11
:10088000220F200D250FF4CF0EF421958991999117
:10089000533619F3533729F1533559F1BC018827E1
:1008A0009927E8945C3621F489919991689455913F
:1008B000543639F446EF7EF077FF0DC08FEF9FEF8F
:1008C0000AC055374AE039F0583540E121F0523638
:1008D00042E009F00895FF93EF937DDFEF91FF91E0
:1008E000B7CFFF93EF93FC0181918030B9F360DFC4
:1008F000FBCFFF93EF9368DFF1CFDF93CF93CDB7BB
:10090000DEB72596A3DFCF91DF9108958295982FCA
:10091000990F990F9C7C869586958373982B892FC8
:10092000880F8A7A96959575892B089590938805F6
:1009300080938705089590938A058093890508958B
:1009400021E030E002C0220F331F8A95E2F7809148
:10095000890590918A05822B932B0E949B04089510
:1009600021E030E002C0220F331F8A95E2F7209584
:1009700030958091890590918A05822393230E9466
:100980009B0408959A3090F5863080F5E82FF0E0CA
:1009900086E0989FE00DF11D11248E2F877041E0B5
:1009A00001C0440F8A95EAF783E0F695E7958A95AA
:1009B000E1F7EE0FFF1FEE0FFF1FE85AFA4F20E09E
:1009C00030E070E05191DF01CB01022E02C096951C
:1009D00087950A94E2F7817081958527842385277E
:1009E0008E932F5F3F4F2430310561F708959A3081
:1009F00078F5863068F5E82FF0E086E0989FE00D06
:100A0000F11D11249E2F977083E0F695E7958A9546
:100A1000E1F7EE0FFF1FEE0FFF1FE85AFA4F40E01D
:100A200050E080E0219130E0092E02C036952795F4
:100A30000A94E2F721703327042E01C0220F0A9492
:100A4000EAF7822B4F5F5F4F4430510559F7089505
:100A500080E00895E0918905F0918A0521E030E079
:100A6000D90102C0AA0FBB1F8A95E2F7CD01D901B7
:100A700002C0AA0FBB1F6A95E2F7BD018A2B972B14
:100A800002C0220F331F4A95E2F7AF0148235923D2
:100A90008417950731F4CF01822B932B0E949B047E
:100AA000089520953095C9018E239F23F7CF80911B
:100AB000900590918F05981301C008958F5F8770FE
:100AC000FACF90918B058095892380938B05282FF1
:100AD000277021110DC0891759F090918D0592FF53
:100AE00007C08695869586950E94B00410928B0566
:100AF0000895982F9095809184058923809384058B
:100B000008957A30B8F46630A8F48330B0F4E62F54
:100B1000F0E096E0799FE00DF11D11249CE3899FA0
:100B2000E00DF11D1124EE0FFF1FE658FA4F8591DD
:100B30009591089580E090E0089581E0FCCF9C01BC
:100B4000803E910509F448C0D8F48133910509F439
:100B50007DC048F48932910509F46DC08A9709F483
:100B60007CC0C90108958933910551F182389105FE
:100B700039F1C597B1F780918C0585FFF2CF29C077
:100B8000843E910509F447C048F4823E910599F1ED
:100B9000833E9105A9F121EE30E0E3CF863E910539
:100BA00009F444C0873E9105E1F680918C0583FDF0
:100BB00061C090918D0591FF2BC024EE30E0D1CF24
:100BC00080918C058370811152C080918D0583FFC7
:100BD000C8CF29E230E0C5CF80918C0580FD33C0BD
:100BE00090918D0590FFBDCF23EE30E084FFB9CF0B
:100BF00020E030E0B6CF80918C0582FDF5CFB1CFFB
:100C000080918C0582FD30C090918D0590FD2FC0A4
:100C100084FFA7CFEDCF80918D0581FFA2CF80917A
:100C20008C0527EE30E084FDE3CF9BCF80918C05CF
:100C300083FDF7CF96CF80918C0585FD1EC08091F6
:100C40008D0583FF8ECF29E330E08BCF80918C051B
:100C500086FF87CF2AE230E084CF80918C0586FF23
:100C600080CF21E330E07DCF22EE30E07ACF20EE5E
:100C700030E077CF26EE30E074CF25E330E071CF5F
:100C800090918C0592FF10C041E0282F24712430F0
:100C900009F040E031E0282F2871283009F030E0D9
:100CA000431711F02CE0822793FF10C041E0282F5A
:100CB0002471243109F040E031E0282F28712831D7
:100CC00009F030E0431711F02CE0822730918D05B8
:100CD00030FF10C051E0282F2171213009F050E081
:100CE00041E0282F2871283009F040E0541711F016
:100CF00029E0822731FF10C041E0282F21712131E6
:100D000009F040E031E0282F2871283109F030E067
:100D1000431711F029E0822794FD877E08951F93E1
:100D2000CF93DF930E949F05EC01811522E5920786
:100D300008F055C0811540E5940708F0D1C0803E09
:100D4000910520F58D3C910508F0A4C0883A9105E5
:100D500070F4853A910508F09AC081309105D1F17F
:100D60000497813A9105B0F1C0E0D0E033C0885AD1
:100D700091094B97C8F7C85AD0E0CC0FDD1FCD5270
:100D8000DD4F0990D881C02DD46424C0811550E472
:100D90009507C0F4C11580E2D80708F0B7C0C83E77
:100DA000D105C0F0CE019A9581159F41E8F68D2FAF
:100DB0000E944006182FCE0199270E949F05EC0142
:100DC000D12B08C099270E949F05CC27DF70C82B24
:100DD000D92BD06ACE01DF91CF911F910895803831
:100DE00042E59407C8F5803652E5950708F05BC0E8
:100DF000C03482E5D807D0F4C03292E5D90708F0B4
:100E00004BC08C2F8695869520E2829FC0011124CD
:100E1000C37021E030E0A90102C0440F551FCA95FC
:100E2000E2F7EA01C82BD92BDD68D4CF8C2F869549
:100E30008695877050E2859FC0011124C37021E020
:100E400030E0A90102C0440F551FCA95E2F7EA013C
:100E5000C82BD92BDC68BECF803C52E5950758F4EF
:100E60008F71C03AD245A0F590E0982F8827EC0109
:100E7000C46FD06AAFCF805C9245809708F074CF82
:100E8000DC2FCC27CC27DF71C06FD06AA3CFA4970B
:100E9000D064A0CFD0659ECFCF71D0E0DC2FCC271F
:100EA000C16FD06A97CF86958695877020E2829F22
:100EB000C0011124C37021E030E0A90102C0440F39
:100EC000551FCA95E2F7EA01C82BD92BDA6882CF01
:100ED0000E944006C82FD0E0DC2FCC27D0627ACF0A
:100EE0008F710E94400693E0CC0FDD1F9A95E1F7C9
:100EF000CC27DF70282F30E084FF04C050E1859FAD
:100F000090011124C22BD32BD06964CF8D2F8F7108
:100F10000E944006182FCE0199270E949F05EC01E0
:100F2000D12BDCCFA0E0B0E0E8E9F7E00C94EA2FA9
:100F30008C01E0908905F0908A0580918705909159
:100F40008805E82AF92ACFE0D0E0CC24C394D12C3C
:100F5000C6010C2E02C0880F991F0A94E2F78E2159
:100F60009F21892B49F4219798F7B12C8B2DCDB770
:100F7000DEB7E9E00C940630BC2EB8018C2F0E943D
:100F800081050E948F06019771F3F0CF0F931F9395
:100F9000CF93FC01858100811181811591F061154C
:100FA00081F0C8010E949207C82F682FC8010E94D3
:100FB000C204B8018C2F0E948105CF911F910F911F
:100FC0000895C8010E94F704C82FF3CFCF93DF9391
:100FD000D82FC92F0E9492076D2F7C2F0E94810568
:100FE0000E948F06DF91CF910895FC0184818115C5
:100FF000A1F0808191810E94E607282F92959F7031
:10100000963099F060F4925F9F70923030F4203FF8
:10101000B1F038F481E0283E38F080E008959A5F1E
:10102000F3CF81E0243FC9F7089591E0213F09F013
:1010300090E081E0283E08F080E0892B089581E06F
:101040000895F894E82FE295EF70F0E041A18F70D9
:1010500021E030E0B90102C0660F771F8A95E2F700
:10106000CB01962F9095942391A392A1892B82A3D3
:101070007894089581E080931A050895CF92DF92C5
:10108000EF92FF921F93CF93DF93172FE82FF0E09B
:10109000E554FD4F71110CC0E4918E2F7E2F6E2F01
:1010A000DF91CF911F91FF90EF90DF90CF90089547
:1010B000E62EF12CC72ED12CF491EF2F86E0689FFD
:1010C00090011124CFEFD0E0C901BE010E9424306D
:1010D000AB01EE0CFF1C65E5649FC001659F900DA0
:1010E0001124E81AF90A6E2D660F6E0D7E01EC18B8
:1010F000FD08FE9DD001FF9DB00D11248B2F169F82
:1011000070011124EF2CFF246E01CE18DF08760148
:10111000FE9D6001FF9DD00C11247E01E61AF108AE
:10112000B701169F7001179FF00C1124EF2CFF24BC
:10113000CE19DF09FC9F7001FD9FF00C11247F2D5B
:1011400043305105C1F02C3F334058F44130510534
:10115000B1F04230510509F0A2CFEB2F8F2D7F2F38
:101160009ECF4430510571F04630510509F497CFB8
:101170007B2F8D2D94CF7D2DEB2F8F2F90CF7F2F19
:10118000ED2D8DCFEF2D7B2FF8CF982F8091470538
:10119000811529F081E0923208F080E0089581E025
:1011A0009434FACF9C0180E090E0269F812D369FF9
:1011B000800D911D11240895AC018230910508F431
:1011C00008959FEF413E8EE1580740F4CA0125E0A3
:1011D000969587952A95E1F798E0980F61E0E62FBC
:1011E000E90FFF27FF1F9F0135952795822F229F2B
:1011F000F001239FF00DF00D11244E175F0738F416
:101200009FEF920F961758F78FEF860F08952F3F95
:10121000E9F361E0620FF6CF982FE82F96FDE09595
:101220008E2F8F7096FD8F5FE695E695E695E670BA
:10123000F0E0EF54FE4F2181289F202D812D1124B5
:1012400022952F708295807F282B8081820F97FDB9
:10125000819580580895FC019B01009719F4832F14
:1012600080780895AC0197FF04C044275527481B98
:10127000590BB901640F751F37FD0FC0C901841BDD
:10128000950BA5E0880F991FAA95E1F70E943830C9
:1012900080E2861BF7FD81950895CB0165E0880FFC
:1012A000991F6A95E1F7BA01621B730B0E943830EF
:1012B00080E6EFCF1F93CF93DF93D62FC72F182F42
:1012C000822F86950E940C09805887FD8195880F92
:1012D000282F219F212D1124822F6D2F7C2FDF910C
:1012E000CF911F9108951F93172F922FE42FF0E0B5
:1012F000EE0FFF1FEB50FE4F408124EE429F412D29
:101300001124272F30E050E0445E5F4FA92FB0E05A
:10131000FA01E91BF109F7FF03C0FD01E41BF50B1E
:1013200093E0EE0FFF1F9A95E1F72E1B3F0B37FF5F
:1013300002C020E030E0722F719F712D11241F91A7
:1013400008951F93182FE42FF0E0EE0FFF1FEB50CE
:10135000FE4F408134EE439F412D112490E050E038
:10136000445E5F4FE22FF0E0DA01A21BB1099D015C
:10137000B7FF03C09F01241B350B43E0220F331F2F
:101380004A95E1F7821B930B97FF02C080E090E043
:10139000282F219F212D1124822F1F9108950F9313
:1013A0001F93CF93DF93D62F172FC82FBA01C901F0
:1013B000212F201B022F0E942B09982F990F990F84
:1013C000782F791B700F719F712D11246D2F8C2F29
:1013D000DF91CF911F910F910895FF920F931F936B
:1013E000CF93DF93D62FC72F182FBA01C901F12E43
:1013F000F01A0E942B09982F990F990F082F091B9B
:101400000F0D019F012D11246D2F7C2F802FCDB743
:10141000DEB7E5E00C940A30EF920F931F93CF9361
:10142000DF93D62F172FC82FBA01C9010E19010F4C
:101430000E942B09702F781B719F712D11246D2F25
:101440008C2FDF91CF911F910F91EF900895EF9224
:101450000F931F93CF93DF93D62FC72F182FBA0167
:10146000C9010E19010F0E942B09081B019F012DB4
:1014700011246D2F7C2F802FDF91CF911F910F9121
:10148000EF900895622F0895E42FF0E0EE0FFF1F14
:10149000EB50FE4F6081621B0895E42FF0E0EE0FE9
:1014A000FF1FE754FE4F65AD621B0895322F50E0D9
:1014B000FA01EE0FFF1FE754FE4F95AD905297FDD6
:1014C0009195440F551FFA01EB50FE4F2081231BCD
:1014D000330B290F311D97FD3A95620F0895EF9256
:1014E0000F931F9310E09801220F331F200F311F1D
:1014F000359527956E2D620F1F910F91EF900895EE
:101500000F93CF93DF93D72FC82FF90147FD419554
:1015100028E330E0241B310947FD3395229FA001C9
:10152000239F500D500D1124EE9FC001EF9F900D91
:10153000900D1124840F951F0E94DC08982F990F9D
:10154000692F680F600F7D2F8C2FDF91CF910F9146
:1015500008950F93CF93DF93D72FC82FBA01C901F6
:101560000E942B09682F600F7D2F8C2FDF91CF9168
:101570000F910895EF920F93CF93DF93D72FC82F3A
:10158000BA01C9010E190E942B09602F681B7D2F1B
:101590008C2FDF91CF910F91EF9008950F931F93B0
:1015A000522F10E0F801EE0FFF1FE754FE4FA5ADDC
:1015B000A052BB0B9D015203F001539FF00D11246B
:1015C000000F111FD801AB50BE4F2C912057330B89
:1015D0004203D001439FB00D11249F012A0F3B1FEE
:1015E00037FF02C021583F4F220F232F221F330BFA
:1015F000620F1F910F9108950F931F93522F10E0C8
:10160000F801EE0FFF1FE754FE4FA5ADA052BB0B34
:101610009D015203F001539FF00D1124000F111F83
:10162000D801AB50BE4F2C912057330B4203D00151
:10163000439FB00D11249F012A0F3B1F37FF02C0AB
:10164000215C3F4F96E0359527959A95E1F7620F1B
:101650001F910F9108950F931F93A42F10E0F8018D
:10166000EE0FFF1FEB50FE4F9081905797FD919525
:10167000000F111FF801E754FE4F05AD0052110B8A
:101680002003A001219F500D112428E330E0291BE5
:10169000310997FD33951A2F1203F001139FF00DB6
:1016A00011244E0F5F1F9A01220F331F240F351F85
:1016B00037FF02C021583F4F220F232F221F330B29
:1016C000620F1F910F9108954095282F429F412D41
:1016D0001124842F0895409520E4429F412D112428
:1016E000640F0895EF92FF920F93970195E0099F81
:1016F000200D311D1124211591E0390710F02FEF35
:1017000030E02095382F320F08F43FEF832F0F91F0
:10171000FF90EF900895EF92FF920F93E00EF11C6F
:10172000F90137FF03C0F195E195F10924E0EE0FCF
:10173000FF1F2A95E1F7E11531E0F30714F0EFEF11
:10174000F0E0DA0157FF03C0B195A195B10994E02B
:10175000AA0FBB1F9A95E1F7AE17BF070CF4FD0166
:10176000EE0DFF1DE11591E0F90710F0EFEFF0E04D
:101770002E2F2095382F320F08F43FEF832F0F9133
:10178000FF90EF900895EF92FF920F93CF93DF9326
:10179000972FEA01F901D701093430F4A01BB109F0
:1017A000A11521E0B20710F0AFEFB0E028966197E5
:1017B00040F0AF01485F5F4F4131510510F0AFEF8E
:1017C000B0E02A2F2095382F320F08F43FEF832FF7
:1017D000F7FD33969F0135952795359527956091AF
:1017E0007B05620F792FDF91CF910F91FF90EF90E2
:1017F0000895EF92FF920F939701201B3109211555
:1018000041E0340710F02FEF30E0322F3095482FB1
:10181000430F08F44FEF842F620F0F91FF90EF906A
:101820000895FC0180914705811104C0E232F10561
:101830000CF0B297CF010E94AE0C0895FF920F9367
:101840001F93CF93DF93182F062FF42EC0E0D0E024
:101850002F2D402F612FCE010E94110C2196C434F0
:10186000D105B1F7CDB7DEB7E5E00C940A309EE0C4
:10187000899F802D1124980F953408F094E42091CD
:101880004705211104C0823228F482E20895933280
:1018900008F092E2089590910005292F30E07091B0
:1018A0000105A9014F5F5F4F437055277417150657
:1018B00089F022503B4F60FB87F9F90184839F5FD9
:1018C0009370909300058091FE048F5F8093FE04D7
:1018D00081E0089580E0089590E06115E9F0815578
:1018E0009E4FFC0180818F3FB1F0E82FE295EF70B1
:1018F000F0E041A18F7021E030E0B90102C0660F35
:10190000771F8A95E2F7CB01962F9095942391A3A8
:1019100092A1892B82A3089583559E4FE2CF90E038
:101920006115A9F081559E4FFC0120812F3F91F058
:10193000E22FE295EF70E05EF0E0808190E02F70A2
:1019400002C0959587952A95E2F781700895835591
:101950009E4FEACF80E008956E9A0895FC01EE0F45
:10196000FF1FE80FF91FEC58FC4F6183408322836F
:101970000895FC01680F791F8FEF41E3919189274A
:1019800028E030E0982F990F87FF09C0892F84271E
:1019900021503040B9F7E617F70781F70895892FEE
:1019A000F7CF80914605811559F0E0914E05F091F1
:1019B0004F05309729F00190F081E02D09950895A9
:1019C00080E00895A3E0B0E0E8EEFCE00C94F12F95
:1019D0009C01809172039091730382179307A1F089
:1019E0003093730320937203E0914E05F0914F05FD
:1019F000309751F083E089833B832A830084F1850B
:101A0000E02DCE01019609952396E2E00C940D306D
:101A1000A3E0B0E0EEE0FDE00C94F12F9C0180919A
:101A200070039091710382179307A1F030937103B3
:101A300020937003E0914E05F0914F05309751F0DF
:101A400084E089833B832A830084F185E02DCE01E5
:101A5000019609952396E2E00C940D309C01FC015F
:101A600032968FEF90E04191461751F08F3F19F475
:101A7000411101C0892F9F5F9630A9F78F3F09F46C
:101A80000895280F311D87FD3A95F9016283089565
:101A90009C01FC013296285F3F4F8191861302C062
:101AA000DF011E92E217F307C1F7089580910A0142
:101AB00008952FB7F89480916C0390916D03A091D5
:101AC0006E03B0916F032FBF08952FB7F894609104
:101AD0006C0370916D0380916E0390916F032FBF23
:101AE0000895CF92DF92EF92FF9280914605811583
:101AF00059F00E94650D6B017C01C701B601FF9092
:101B0000EF90DF90CF9008950E94650DC09048053A
:101B1000D0904905E0904A05F0904B05C60ED71EBF
:101B2000E81EF91EEACF08950895FC019B018091FB
:101B30006003909161038617970740F0672B29F4A3
:101B40008091E8008E778093E800C90140E000971B
:101B500041F4411106C08091E80082FF2FC080E06F
:101B60000895209184042115A9F12530A9F120912F
:101B7000E80023FD2DC02091E80022FDECCF20914C
:101B8000E80020FFE4CF3091F3002091F2000097AD
:101B900019F02830310558F041E02830310509F0BE
:101BA00040E02091E8002E772093E800D0CF4191CB
:101BB0004093F10001972F5F3F4FE9CF809184045C
:101BC000811541F0853041F08091E80083FFC3CF5B
:101BD00081E0089582E0089583E0089580915A039A
:101BE00087FF13C08091E80082FF06C08091E80063
:101BF0008B778093E8000895809184048111F2CF5F
:101C00000895809184048115D9F38091E80080FFC4
:101C1000F8CF8091E8008E77ECCF2091E4003091EE
:101C2000E50095E6A9012091EC00822F817020FF4C
:101C300006C08091E80080FF06C080E008952091F2
:101C4000E80022FD1AC080918404811589F0853056
:101C500089F08091EB0085FD0FC02091E400309168
:101C6000E50042175307F9F29A95E1F684E00895EA
:101C700082E0089583E0089581E00895E8EDF0E0C2
:101C800080818E7F80831092E2001092DA001092A1
:101C9000E100A0EEB0E08C9181608C9380818F7721
:101CA000808319BCA7EDB0E08C918E7F8C938081EE
:101CB0008F7E8083109259030895EF92FF920F93C5
:101CC0001F93CF93DF937C01809104010E94370C16
:101CD000C82F192F60917E056695669521E0620FE9
:101CE00008F46FEF8091490490914A040E94D20851
:101CF000082FD0E0C11740F0812F0E94C508CDB752
:101D0000DEB7E6E00C940930FE01E358FD4F808118
:101D1000909105018923811589F060917B0570916F
:101D20007C0580917D05202F4C2FF70109950E949D
:101D30003E08472F282FCE010E94110C2196DACFA2
:101D4000AF92BF92DF92EF92FF920F931F93CF93C8
:101D5000DF935C01809104010E94370CC82F192F7A
:101D600060917E0566958091490490914A040E9495
:101D7000D208D82ED0E0CE01880F991F9C0127549D
:101D80003E4F79011C1709F068F4812F0E94C508A5
:101D9000DF91CF911F910F91FF90EF90DF90BF9057
:101DA000AF900895FE01E358FD4F808190910501A9
:101DB00089238115B9F0F70125AD2052330B44ADCD
:101DC0004057550B60917B0570917C0580917D0596
:101DD0000D2DF50109950E943E08472F282FCE01B1
:101DE0000E94110CF2E0EF0EF11C2196CBCFA0E087
:101DF000B0E0EDEFFEE00C94E52F3C018091040192
:101E00000E94370CC82F192F60917E05669580912E
:101E1000490490914A040E94D208F82ED0E0CE01E5
:101E2000880F991F9C0127543E4F69011C1709F028
:101E300040F4812F0E94C508CDB7DEB7EEE00C94C8
:101E40000130FE01E358FD4F808190910501892307
:101E5000811571F1F60184AD282F2057330B5901FC
:101E600085ADE82FE052FF0B4F01AA9C9001AB9C7F
:101E7000300D300D1124EE9FC001EF9F900D900D9D
:101E80001124820F931F0E94DC08082F60917B05AC
:101E900070917C0580917D05EF2C9401A501F301E3
:101EA00009950E943E08472F282FCE010E94110C51
:101EB000F2E0CF0ED11C2196B9CFA4E0B0E0E3E66A
:101EC000FFE00C94EB2F6C01809104010E94370C11
:101ED0008B83F92E60917E05669566958091490405
:101EE00090914A040E94D208182F80E4810F0E942A
:101EF0000C0980588983812F0E940C0980588A839D
:101F00009B81892F90E09C838B839B819F1538F068
:101F10008F2D0E94C5082496E8E00C940730EB81D1
:101F2000FC81E358FD4F8081909105018923811543
:101F3000A1F060917B0570917C0580917D05E12E7B
:101F40000B812A814981F60109950E943E08472F9D
:101F5000282F8B819C810E94110C8B819C81019682
:101F6000D2CFA0E0B0E0E7EBFFE00C94E82F7C01DB
:101F7000809104010E94370CC82FB92E20917E0554
:101F800031E0230F08F42FEF30E040E050E06FEF36
:101F90007FEF80E090E00E941D316901D0E0A22E29
:101FA0009D2C9C2FCB1540F08B2D0E94C508CDB7E2
:101FB000DEB7EBE00C940430FE01E358FD4F808166
:101FC000209105018223811519F140915904415056
:101FD000042E000C550B47FF1DC00A2D192D6091D2
:101FE0007E0521E0620F08F46FEFC8010E94D2085D
:101FF000AC0160917B0570917C0580917D05F701B6
:1020000009950E943E08472F282FCE010E94110CEF
:102010002196C7CFFA01E75AFB4F818989130AC07D
:10202000FA01EE0FFF1FE75AFB4F018D128D0C15C1
:102030001D05A8F241505109CECFA8E0B0E0E3E27F
:10204000F0E10C94E12F582E6A837B838091040188
:102050000E94370C292E209159042C83E82FF0E0A0
:10206000F887EF83CF01880F991F9C0127543E4FBB
:102070006901852D90E0FC013196FE83ED838F810F
:10208000821538F0822D0E94C5082896E2E10C9452
:10209000FD2FEF81F885E358FD4F80819091050178
:1020A00089238115F9F040907B05F0917C05F98337
:1020B0002D813E81275A3B4F3901352C10E0FC81A0
:1020C0003F16D0F020917D05129F112D1124642D13
:1020D0007981812F0E943E08472F282F8F81988574
:1020E0000E94110C2F8138852F5F3F4F38872F8337
:1020F00032E0C30ED11CC3CFF30181913F01F60141
:10210000A4ACA81ABB0885ACF3018781881A99088A
:10211000AA9C9001AB9C300D300D1124889CC0010D
:10212000899C900D900D1124820F931F0E94DC0852
:10213000082F60917E0521E0620F08F46FEFF30134
:10214000EE0FFF1FE955F440858996890E94D20859
:102150007C019401A501642D7981812FEA81FB81A5
:102160000995462E7983182F3394A9CF982F9093F1
:10217000E900891771F07091EC002091ED00509109
:10218000F00021FD09C09F5F973089F78093E90037
:102190000895762F242F50E03091EB003E7F30934E
:1021A000EB003091ED003D7F3093ED003091EB007E
:1021B00031603093EB007093EC002093ED0050936E
:1021C000F0002091EE0027FDDECF0895A0E0B0E002
:1021D000ECEEF0E10C94EB2FC8EDD0E088818F7E1F
:1021E0008883E7EDF0E080818160808384E082BFB6
:1021F00081E08093590388818E7F888302EE10E00E
:10220000F80110821092DA0081EEC82ED12CF6016E
:10221000108288818F77888388818068888388810D
:102220008F7D888319BC10928404109258031092F9
:1022300083041092570390EEE92EF12CF701808170
:102240008B7F808388818160888342E060E080E0CA
:102250000E94B610F60180818E7F8083F801808114
:1022600081608083808188608083F70180818E7F98
:102270008083888180618883CDB7DEB7E8E00C94E5
:102280000730E091900590918F0527E0E91302C097
:1022900080E00895AE2FB0E02E9FF0011124EF569C
:1022A000FA4F3181361306C03081381303C03581AF
:1022B000341304C0FD013196E770E8CF81E0089542
:1022C0009FB7F894109263039FBF90918404943059
:1022D00009F047C02091E9009091EC002F7097958C
:1022E00099279795922B23E02093E9002091EB000A
:1022F00020FF34C02091EE0027FF30C02091620300
:10230000211521F02091E80025FF28C010926203DA
:1023100026E03091E80035FF14C08093F1008091F1
:10232000E80085FD27C08091E80080FFFCCF809108
:10233000E8008E778093E8009F709093E90080E03A
:10234000089530918404343049F43091EB0035FD28
:1023500005C02A9541F481E0809362039F709093B9
:10236000E9008FEF0895EFE9FFE03197F1F700C042
:102370000000CFCF8FB7F89421E0209363038FBF85
:10238000DBCF3EB13F7B2EB120644FB7F89484E79A
:1023900093E0FC010196508168E02EB9000000C076
:1023A00057FF3EB9550F000000C000C000C03EB945
:1023B00000C06A9591F754E08034950751F74FBFFC
:1023C0008FE594E00197F1F700C0000008950F93A6
:1023D0001F93CF93DF938B01EA0190918404943093
:1023E00059F58093E9008FEF9091E80095FD06C0C4
:1023F00095ED9A95F1F700008A95B1F78091E80084
:1024000085FF1AC00E940D0E811111C08091E80055
:1024100085FD06C08091E8008E778093E800F2CFBA
:10242000F80181918F018093F100219779F78091D4
:10243000E8008E778093E800DF91CF911F910F9194
:102440000895CF93DF93D82FC92F48E050E0682F2D
:10245000792F81E00E94E71188E0ED2FFC2FA4E6A0
:10246000B3E001900D928A95E1F7DF91CF91089545
:10247000BC0143E050E082E00E94E7110895A0E033
:10248000B0E0E5E4F2E10C94E62FE82E992E862EDA
:10249000772E042FF52E5901809145059AE0C92E1B
:1024A000D12C8A3018F0CC24C394D12CC1E0D0E0D8
:1024B000682D772D8E2D992DF5010995182F8111F5
:1024C00026C02196CC16DD0694F0CC9FC001CD9F8E
:1024D000900D900D112420E030E045E34A95F1F78E
:1024E00000002F5F3F4F28173907B9F7E1CF8091E0
:1024F000830580FF0CC0FF920F9384E695E09F93C5
:102500008F930E947D040F900F900F900F90812F5A
:10251000CDB7DEB7EDE00C94023090917A05892FAB
:10252000837021E0382F3227832F9C7F892B809363
:102530007A0510925B01809182058160809382050B
:102540008091830580FF12C01F923F938FE591E039
:102550009F938F9384E892E09F938F930E947D04D2
:102560000F900F900F900F900F900F9008959091F3
:102570007A059370911551F1833208F082E28F73DE
:10258000982F990F990F20917A052370922B909391
:102590007A0510925B01909182059160909382057B
:1025A0009091830590FF12C01F928F938FE591E069
:1025B0009F938F9382EC91E09F938F930E947D0471
:1025C0000F900F900F900F900F900F9008958091A3
:1025D0007A05869586958F5F833208F081E00E94A8
:1025E000B712089580917A05869586958A9509F4A3
:1025F00082E20E94B71208959C0180917A0583704F
:10260000811559F120937B0560937C05493708F0CB
:1026100048E740937D058091820581608093820523
:102620008091830580FF19C01F924F931F926F9373
:1026300033273F932F938FE591E09F938F938FE9FB
:1026400091E09F938F930E947D048DB79EB70A9669
:102650000FB6F8949EBF0FBE8DBF0895EAE7F5E070
:10266000818190E04381628108960E94FC12089566
:10267000EAE7F5E08181438162818850990B0E94ED
:10268000FC120895EAE7F5E0628120E1620F08F4A8
:102690006FEF8181438190E00E94FC120895EAE788
:1026A000F5E0628120E1621B08F460E081814381F2
:1026B00090E00E94FC120895EAE7F5E0438120E1F2
:1026C000420F08F44FEF8181628190E00E94FC127A
:1026D0000895EAE7F5E0438120E1421B08F440E079
:1026E0008181628190E00E94FC12089580937E05B2
:1026F000909182059160909382059091830590FF5F
:1027000012C01F928F938FE591E09F938F9380E883
:1027100091E09F938F930E947D040F900F900F90F4
:102720000F900F900F90089580917E0520E1382F33
:10273000320F08F43FEF832F0E94761308958091A3
:102740007E0520E1382F321B08F430E0832F0E94F1
:1027500076130895CF93C82F80918D0582FB99271A
:1027600090F99C17F9F0C0FB82F980938D05609178
:102770008C0570918D0584E090E00E94173182E015
:102780000E9461058091830580FF0CC01F92CF934A
:1027900083E097E09F938F930E947D040F900F90AA
:1027A0000F900F90CF9108950F931F93CF93DF93C6
:1027B0008091840590918E05892B40918505411566
:1027C00089F090E024E433E0F90150812F5F3F4F1E
:1027D00051119F5F53E02A343507B1F791111092E0
:1027E0008505842B8093420348E050E060E575E066
:1027F00082E493E00E94AE30892B09F44DC088E05A
:10280000E2E4F3E0A0E5B5E001900D928A95E1F7EE
:10281000E0914E05F0914F053097F1F10280F38180
:10282000E02D82E493E009958091830582FF34C016
:1028300080FF0EC0809142031F928F938AEE96E034
:102840009F938F930E947D040F900F900F900F9095
:10285000C2E4D3E004EE16E08091830580FF0BC054
:102860008A811F928F931F930F930E947D040F9074
:102870000F900F900F90219683E0C834D80761F72E
:102880008091830580FF08C082EE96E09F938F932E
:102890000E947D040F900F90DF91CF911F910F91B7
:1028A000089510928405E4E4F3E086E0DF011D92D0
:1028B0008A95E9F780E090E00E94E20C80E090E0E9
:1028C0000E94080D10928E050E94D41308950E9454
:1028D00051142FEF84E39CE0215080409040E1F7B9
:1028E00000C0000088E19CE00FB6F894A8958093A2
:1028F00060000FBE90936000FFCFAAE2B0E0E3E873
:10290000F4E10C94F02F8AE593E0FC01019620910C
:10291000F100208323E082369207B9F780915B03B0
:10292000893009F45AC0C8F4823009F4B6C0833043
:1029300009F485C0813091F18091E80083FFEAC0FD
:1029400080915A0390915B039A3008F0E3C0E92F1D
:10295000F0E0EE57FE4C0C944C308A3009F48CC0F9
:102960008B3051F780915A03813231F780915E03A9
:1029700090915F03892B01F78091E800877F809316
:10298000E8000E94EE0D81E090915C03911101C07E
:1029900080E080930B010E945114CECF80915A03A6
:1029A000813A51F68091E800877F8093E80080911A
:1029B0005E0390915F03892B61F060E080E090E01E
:1029C00070E00E94950D8091E8008B778093E8007D
:1029D000B3CF68E084E693E0F3CF80915A0381326D
:1029E00009F0AACF80915E0390915F03029708F0EF
:1029F000A3CF8091E800877F8093E8008091E80072
:102A000082FF18C09091F3008091F200029731F498
:102A10008091F100813011F0863021F48091F10035
:102A200080930A018091E8008B778093E8000E94F0
:102A3000EE0D82CF809184048111E0CF7DCF809113
:102A40005A03813A09F078CF80915E0390915F0339
:102A5000892B09F071CF8091E800877F8093E8008F
:102A60008091E80080FFFCCF80910B018093F10002
:102A70008091E8008E77D9CF80915A03813209F096
:102A80005BCF8091E800877F8093E8000E94EE0D85
:102A900080915D03809309014FCF80915A03813A61
:102AA00009F04ACF8091E800877F8093E800809109
:102AB000E80080FFFCCF80910901D8CF803889F0F1
:102AC000823841F580915E038F70873018F58093CE
:102AD000E9008091EB0085FB882780F91092E900DE
:102AE00006C080918304880F90915703892B9091A1
:102AF000E800977F9093E8008093F1001092F10036
:102B00008091E8008E7723C0811116C080915C030C
:102B1000813011F18091E80083FF0AC08091E800C4
:102B2000877F8093E8008091EB0080628093EB00C8
:102B3000AA96E3E00C940C30823061F780915C033C
:102B4000811589F01092E9008091E800877F8093D9
:102B5000E8000E94EE0DDECF81E0933009F080E0C6
:102B600080938304EFCF80915E038F702FEF280F47
:102B7000263080F68093E9002091EB0020FFE2CF21
:102B8000933031F48091EB0080628093EB00DACFD8
:102B90009091EB0090619093EB0021E030E0A9016F
:102BA00002C0440F551F8A95E2F74093EA00109245
:102BB000EA008091EB008860E8CF8111ABCF1091E3
:102BC0005C031F778091E3008078812B8093E30082
:102BD0008091E800877F8093E8000E94EE0D80914D
:102BE000E80080FFFCCF8091E30080688093E300E1
:102BF00083E0111101C082E0809384048BCF805860
:102C0000823008F087CF80915C0390915D038C3D0A
:102C100053E0950799F583E08A838AE289834FB769
:102C2000F894DE01139620E03EE051E2E32FF0E05D
:102C300050935700849120FF03C082958F703F5FAF
:102C40008F708A30C8F0895C90E08D939D932F5FE0
:102C5000243161F74FBF8091E800877F8093E800BF
:102C60006AE270E0CE0101960E94950D8091E80025
:102C70008B778093E8004ECF805DE6CF292F3327F6
:102C80002330310509F44DC078F52130310509F4C0
:102C90007CC084E590E0ECEDF1E02230310509F0F4
:102CA00039CF2091E800277F2093E800209160032E
:102CB000309161038217930708F49C0140E02115CD
:102CC000310509F067C0411165C08091E80082FDBF
:102CD000CDCF80918404811549F2853039F28091FD
:102CE000E80083FFF2CFC2CF80915E0390915F0333
:102CF00021323105D9F12232310509F00BCF833071
:102D0000910508F007CFFC01EE0FFF1FEF55FE4FB6
:102D10000190F081E02D82569E4FDC018C9190E075
:102D200011C09C013327813089F022303105B1F088
:102D3000232B09F0EFCEECE6F2E0E4918E2F90E049
:102D4000ECE6F2E0009709F4E5CEABCFECE5F2E07B
:102D5000E4918E2F90E0ECE5F2E0F4CFE2E4F2E0D3
:102D6000E4918E2F90E0E2E4F2E0ECCF8330910525
:102D700008F0D0CEFC01EE0FFF1FE955FE4F019089
:102D8000F081E02D89E090E08CCF82E190E0E0E3FB
:102D9000F2E087CF80918404811509F467CF8530F4
:102DA00009F464CF8091E80083FD60CF8091E80052
:102DB00082FD8BCF8091E80080FF81CF9091F3005E
:102DC0008091F2002115310519F08830910550F0FD
:102DD00041E0089709F040E08091E8008E77809309
:102DE000E8006DCF44914093F100319621503109B4
:102DF0000196E8CF803809F08DCE8091E800877F7A
:102E00008093E800809158038093F10079CE81117E
:102E100081CE10915C03123008F07CCE8091E800E6
:102E2000877F8093E800109358030E94EE0D1115E0
:102E3000D1F084E08093840442E061EC81E00E9460
:102E4000B61042E261EC82E00E94B61042E261EC10
:102E500083E00E94B61080918404843051F482E0B3
:102E600080930C0157CE8091E30087FDE2CF81E093
:102E7000E1CF81E0F5CFCF93C82F8115A9F08CEF7A
:102E80008C0F813A98F4E4E4F3E08AE493E0219132
:102E9000C217B1F18E179F07D1F76C2F82E493E030
:102EA0000E942E0D0E94D413CF91089580E28C0FC2
:102EB000883068F4C77021E030E001C0220FCA9565
:102EC000EAF780918405822B80938405EBCF8BE514
:102ED0008C0F833038F42C2F2452330BC9010E94FD
:102EE000E20CE2CFC85ACB31F8F6EC2FF0E0EE0F4F
:102EF000FF1FE75FFC4F808191810E94080DD4CFB6
:102F00006C2F82E493E00E94480D0E94D413C5CF39
:102F1000682F811541F18CEF860F813A38F482E4F5
:102F200093E00E94480D0E94D413089580E2860F1A
:102F3000883048F4677081E001C0880F6A95EAF72D
:102F40000E947905F0CF8BE5860F833028F480E06E
:102F500090E00E94E20C0895685A6B3120F480E002
:102F600090E00E94080D0895CF93C82F0E943B1750
:102F70008C2F0E948817CF91089580E090910105D1
:102F800020910005291741F1E92FF0E0EE5FFA4F9B
:102F9000808187FB222720F98F779F5F9370909322
:102FA00001059091FF049F5F9093FF04811549F004
:102FB000813029F48EE4211108C08BE406C08230F0
:102FC00041F489EA211101C08AEA0E94B41781E024
:102FD000D5CF8330E1F7EECF0895811539F0909188
:102FE0008405892B809384050E94D413089581154C
:102FF00021F00E9479050E94D4130895EF92FF9268
:103000000F931F93CF93DF93C62FD42F122F8115C9
:10301000A9F0609378050E94590D90935503809311
:103020005403C77081E001C0880FCA95EAF70E9477
:10303000ED17CDB7DEB7E6E00C9409308091780546
:10304000681332C0E0905403F09055030E94590D6C
:103050008E199F09883C910538F500E20D0FCD17B8
:10306000A9F0C770FF24F3948F2D01C0880FCA9573
:10307000EAF70E94F717083048F48D2F877001C0D7
:10308000FF0C8A95EAF78F2D0E94ED17812F0E9481
:10309000B417083070F6D77081E001C0880FDA9558
:1030A000EAF70E94F717C5CFC77081E001C0880F0B
:1030B000CA95EAF7F6CFA0E0B0E0E1E6F8E10C94BB
:1030C000EB2F7C01FC018481811531F161E0C701A6
:1030D0000E94C607EC01F7018581FE01E851FC471B
:1030E000E730F105A8F5E457FE4C0C944C3026E28D
:1030F00041EE61EE0E94FE1780918B05877081156D
:1031000059F0F7018581811539F080918D0582FF95
:1031100003C082E00E946105CDB7DEB7E8E00C9401
:10312000073027E245EE65EEE5CF26E241EE60EEA0
:10313000E1CF27E245EE64EEDDCF26E241EE62EE1E
:10314000D9CF27E245EE66EED5CF28E241E0EBCFBE
:10315000811509F45CC4109278059E013057233222
:10316000310508F064C484E090E00E94E33090935D
:103170008D0580938C05FE01E150F047E232F105A8
:1031800020F4ED56FE4C0C944C3080918C058160FF
:1031900080938C0560918C0570918D0584E090E0A2
:1031A0000E9417310E945114A7CF80918D0588602D
:1031B00080938D05EFCF80918C058260E9CF80915F
:1031C0008C058460E5CF80918C058860E1CF80918B
:1031D0008D058160EDCF80918D058260E9CF809172
:1031E0008C058061D5CF80918C058062D1CF809194
:1031F0008C058064CDCF0E94511480918C0580682D
:10320000C7CF80918C058C60C3CF80918D05836082
:10321000CFCF80918C058E7FBBCF80918D05877F2E
:10322000C7CF80918C058D7FB3CF80918C058B7F2C
:10323000AFCF80918C05877FABCF80918D058E7F3E
:10324000B7CF80918D058D7FB3CF80918C058F7E18
:103250009FCF80918C058F7D9BCF80918C058F7B3C
:1032600097CF0E94511480918C058F7791CF8091D8
:103270008C05837F8DCF80918D058C7F99CF809138
:103280008C05992782FF939590FB82F990FB83F937
:103290007FCF80918D05982F909590FB80F990FBC2
:1032A00081F986CF90918C05892F8F7B96FF806462
:1032B0006FCF0E94511490918C05892F97FB87F94D
:1032C000805866CF61E08EE090E00E94F93062CFD6
:1032D00060E0F9CF90918C05892F8F7E94FF8061FB
:1032E00057CF90918C05892F8E7F90FF816050CFB2
:1032F00090918D05892F877F93FF886059CF9272B7
:10330000FE01E052F847EB30F10508F064C0EB54E1
:10331000FE4C0C944C30909184059272FE01E05466
:10332000F847ED30F10508F056C0E054FE4C0C941F
:103330004C300E948D12E0CE9115B1F10E94F21234
:10334000DBCE9115B1F10E943813D6CE9115B1F1B3
:103350000E944F13D1CE9115B1F10E946913CCCECA
:103360009115B1F10E949F13C7CE80917A058370A9
:10337000811102C010925B0180917A058C7F81607F
:1033800080937A0580918205816080938205B4CE16
:1033900080917A058370811110925B0180917A058A
:1033A0008C7FEECF911551F20E94E712A5CE9115B8
:1033B00051F20E942E13A0CE911551F20E94421399
:1033C0009BCE911551F20E945C1396CE911551F24D
:1033D0000E94941391CEC737FCE7DF07F9F0C83796
:1033E0002CE7D20751F19E01205E32452032310593
:1033F00050F581113FC0CF7181E090E0FC0102C027
:10340000EE0FFF1FCA95E2F7EF016E2F83E090E009
:103410000E94F930CE010E9496046ECE811549F0CB
:1034200081E00E94A00443E062E081E00E942A055E
:1034300063CE81E00E94B004F6CF811511F082E0E6
:10344000F0CF82E0F7CF8115A9F0C330FCE7DF07AA
:1034500009F4CBC008F072C0C1303CE7D30709F4CF
:10346000CAC0C2308CE7D80709F4A9C0C115DC472F
:1034700009F476C0F701858100811181811509F475
:10348000C5C0C8010E949207C82F682FC8010E94BA
:10349000C204B8018C2F0E9481050E948F06D82F8C
:1034A000C92FF701C580068102950F7080918B05A9
:1034B0008770811501F1DC2CC114F1F0892F807F18
:1034C000803461F080E28D0F8830A8F0892F807EF3
:1034D000803221F4D23078F0011569F080918D05A9
:1034E00082FF09C082E00E94610580918B05877090
:1034F000DD24D3948111D12C8C2F82958F7088304C
:1035000009F473C108F0A3C0843008F084C01C2FF4
:103510001F70823008F4ACC0C07FC03211F0129529
:10352000107FD11509F4DAC0D13009F423C1C114D8
:1035300009F42DC1011509F4EFC0AFC0CB35ECE79C
:10354000DE0709F461C0CC35FCE7DF0709F455C09C
:1035500081E0CA35DC4709F08DCF0E94AA138ACFDB
:103560000E9451143FEF84E39CE031508040904032
:10357000E1F700C0000081E08093E00080E28093EA
:10358000D8001092C900EFE1FEE43197F1F700C0D6
:10359000000087E090EBDC018093D0059093D1058B
:1035A000A093D205B093D30588E19CE00FB6F894C0
:1035B000A895809360000FBE90936000FFCF90911C
:1035C0008305892F8E7F90FF81608093830580FF24
:1035D00009C08AE297E09F938F930E947D040F9029
:1035E0000F908ACD88E197E0F6CF6FEF7FEF80E014
:1035F00090E00E9417310E94671480918D0500248D
:1036000082FF0394802DA9CF80E0A7CFC8010E943C
:10361000F704C82F3ECF843009F4CAC0D11409F48E
:103620001BC180918B0580FD17C1F701158286951E
:10363000869586950E94A004C7010E945B18809120
:103640008B058695869586950E94B00405C18930C4
:1036500009F45BC18A5F8F70823000F7D23F09F0B6
:1036600065C18C2F8F71C1105EC10E94A004F2C091
:10367000C03110F01295107FC114B9F0111569F026
:1036800080E28D0F883010F0D11109C0809184053F
:10369000812B809384050E94D4138D2F2FC080919D
:1036A0008E05812B80938E05F6CF8D2F0E94881773
:1036B000111509F4B3CF80E28D0F883010F0D111CD
:1036C00004C0812F0E94790506C0109580918E0557
:1036D000812380938E050E94D413A0CF80918D0505
:1036E00082FD16C0C11469F0111539F0809184056E
:1036F000812B809384050E94D41380E00E943B17A5
:103700008DCF80E00E948817111509F487CFD9CF9B
:10371000C114A1F0011104C0812F0E94ED177ECFCA
:10372000013009F07BCF80918505912F98231917DF
:1037300009F474CF812B8093850570CF01116ECF72
:10374000812F0E94F71790918505812F892381157C
:1037500029F0812F809589238093850580918605A6
:10376000912F9823911509F459CF10951823109390
:10377000860554CFC11421F0063008F04FCFCCCFCE
:10378000053008F04BCF812F0E94F71747CF011566
:10379000D1F3D93349F4FFEF27EE33E0F150204065
:1037A0003040E1F700C000008D2F0E94881736CF0F
:1037B0008C2F869586958370811569F0813009F08C
:1037C0002DCF8D2F9C2F9370C11002C080E090E010
:1037D0000E94080D23CF8D2F9C2F9370C11002C023
:1037E00080E090E00E94E20C19CF8C2F8370811151
:1037F00046C0C1102FC04D2F429546954770440FCB
:10380000440F2D2F2F7030E0042E02C0220F331FE3
:103810000A94E2F780E090E0D4FF09C08FE090E0E6
:1038200002C0880F991F4A95E2F780959095C6953A
:10383000C695C370C230D1F0C330A9F0409187055E
:1038400050918805C13069F0822B932B84239523F6
:103850000E9496040E94D10C60E0C7010E94C60736
:103860005BCC242B352B822B932BF2CF822B932BEB
:10387000209187053091880582279327E9CFC114CD
:1038800091F1C0FFE7CF4D2F429546954770440F09
:10389000440F2D2F2F7030E0042E02C0220F331F53
:1038A0000A94E2F780E090E0D4FF09C08FE090E056
:1038B00002C0880F991F4A95E2F780959095C695AA
:1038C000C695C370C230C1F0C33099F040918905EC
:1038D00050918A05C13059F0822B932B8423952374
:1038E0000E949B04B7CF823008F4B4CFCCCF242BF6
:1038F000352B822B932BF4CF822B932B2091890590
:1039000030918A0582279327EBCFCF70C11439F00D
:103910008C2F0E94A0048D2F0E94ED179BCF8D2F1E
:103920000E94F7178C2F0E94B00494CF70F4D03F00
:10393000C9F0D13F91F0C11409F455C0011509F443
:103940004FC08D2F0E943B1785CFD33F19F1D43F35
:1039500091F790918D0592FD2BC08C2F8F71C11422
:1039600011F383CEC114A1F0053008F073CFCF71ED
:1039700081E090E0FC0102C0EE0FFF1FCA95E2F764
:10398000EF018091890590918A058E279D27A8CF08
:103990000630EBCF80E090E0C11409F4A1CFCF71E5
:1039A00081E090E002C0880F991FCA95E2F798CF96
:1039B000C11461F08C2F8F7192FF57CE982F990F01
:1039C000990F990F936090938B054FCE81E00E94E1
:1039D0006105023008F43ECF82E00E9461053ACFD3
:1039E0008C2F8F7142CE011579F0D93349F4FFEF56
:1039F00027EE33E0F15020403040E1F700C00000F6
:103A00008D2F0E94881726CF8C2F8F718CCFC631B7
:103A1000FCE7DF0709F07FCC8091790565E3811130
:103A200001C069E282E493E00E94480D16C09091C3
:103A30008405C6312CE7D20709F061CC9A7A81E07F
:103A4000911101C080E08093790565E3911101C077
:103A500069E282E493E00E942E0D0E94D4134CCBC5
:103A60008091CF05803178F48091CE05811559F091
:103A7000E091900520918F053091CA054091C905CC
:103A800057E02E1301C008956E2F70E05E9FF00185
:103A90001124DF01AF56BA4F14968C9114978115FB
:103AA00061F111968C911197831327C08C91841327
:103AB00024C015968C91159781111FC012968D9177
:103AC0009C91A091CB05B091CC058A1B9B0B883CA7
:103AD000910598F48091CF058F7080618093CF0518
:103AE000E956FA4F80818F708061808389EC95E080
:103AF0000E945B180E9457050895FB013196E770FC
:103B0000C0CFADE0B0E0E7E8FDE10C94E62F8C011A
:103B100086E0F801DE01189601900D928A95E1F792
:103B2000F801F580C48089EC882E85E0982E70908D
:103B3000CD05711020C0C114D9F0F11409F41CC1D5
:103B4000C8010E94F507811509F416C187E0F80144
:103B5000D40101900D928A95E1F7F1E0CF1206C0F1
:103B60008091C9059091CA050E94E6070E94301D08
:103B7000FF24F39454C0E080A280B380D090CE059F
:103B80008091CB059091CC059501281B390BD11460
:103B900009F4BAC0283C310508F090C0C11441F3C3
:103BA0009091CA05C1808091CF05803108F058C03E
:103BB000C91214C09091C9059E1110C0F1104AC0DD
:103BC0008F7080618093CF0589EC95E00E945B182F
:103BD0008091CF05F8018683F12C21C0F1103AC005
:103BE00040E06C2D8E2D0E94411140E06C2D8E2DF9
:103BF0000E944111F82E8111EFCF888599850E948E
:103C0000E607292F22952F70903470F49F70223090
:103C1000A0F09115B1F0F8019681903190F48F2DBC
:103C20002D96EDE00C9402302A5F2F70223068F060
:103C3000C8010E945B18FD2CF2CF911511F081157F
:103C400071F3805E883058F3F3CF803F40F3815F9B
:103C50008330F9CF8091CF0581608093CF05BCCFB1
:103C6000C91207C09091C9059E1103C0F11409F44F
:103C70006CC0C8010E94F507811509F47DC0F114DC
:103C800009F47AC08091CF05803278F02091C9057F
:103C90003091CA053A832983BC82AB827D821E8221
:103CA0008F83CE0101960E945B1887E0F801A9EC92
:103CB000B5E001900D928A95E1F758CF8091CF053C
:103CC000803150F489EC95E00E945B1887E0F401A4
:103CD00011928A95E9F780CFC11409F449CF209158
:103CE000CA0591812913C5CF9091C9059E11C1CFF5
:103CF000F110BFCF8683C8010E945B1887E0F401F2
:103D000011928A95E9F734CF283C3105F8F6C114B1
:103D100009F42ECFF11481F19091CA058181981395
:103D200021C08091C9058E111DC08091CF0580FDF5
:103D300010C0803170F08683807F803F39F08681AB
:103D4000982F907F905F8F70892B8683C8010E9487
:103D50005B1887E0F801A9ECB5E001900D928A9517
:103D6000E1F706CFC8010E94F50781119ECF80912F
:103D7000CF0581608093CF05C8010E945B18F8CE03
:103D8000ABE1B0E0E6ECFEE10C94EF2F4E8B5F8BE5
:103D9000688F798F8A8F192F9B8F911110928E05C2
:103DA0001D8A86E0FE017696DE011F9601900D9237
:103DB0008A95E1F70A8D011561F00B8B1C8B61E090
:103DC000CE010F960E94C60761E0CE010F960E94B9
:103DD000C6070B8B1C8B87E0FE013F96DE01189611
:103DE00001900D928A95E1F7CE0108960E94811DFF
:103DF000811128C020918F053091900587E0FE0148
:103E00003896DE01119601900D928A95E1F78C8526
:103E10008115C1F0822F90E001968770992738179D
:103E20001906D9F097E0929FD0011124AF56BA4FEE
:103E3000FE01319601900D929A95E1F780938F05DE
:103E40000E94570517E08091900590918F05891386
:103E500012C06B96E4E00C940B300E945114109247
:103E60008F051092900587E0E9ECF5E0DF011D92E7
:103E70008A95E9F7E7CF189FC00111248F569A4F12
:103E80000E94811D811529F38091900590E0019693
:103E90008770992780939005D6CFA6E0B0E0E3E540
:103EA000FFE10C94EF2F0E94590D8C0180914C057D
:103EB00090914D058017910779F019821A820E941E
:103EC000590DBC0149815A8180E090E00E94C01EDA
:103ED00010934D0500934C052696E4E00C940B30AE
:103EE000A1E0B0E0E6E7FFE10C94E12F362E4A01B5
:103EF000222EC32E5701682E880F7708C3010E9417
:103F00006D2FD82E811509F46CC0C30133E0880FE2
:103F1000991F3A95E1F7FC01ED5DFE4F2381422F99
:103F200050E0211511F041E050E08D5D9E4FFC0105
:103F300064817581675D7A4FCE0101960E94BB3026
:103F4000F40140805180628073800E94650D641985
:103F5000750986099709643671058105910538F45C
:103F6000B501C8010E94B90C99818917D1F1E32CE0
:103F7000032C000CFF08C7010E946D2FD82E811161
:103F800006C0D12C8D2D2196E2E10C94FD2FC701A6
:103F900023E0880F991F2A95E1F7FC01ED5DFE4FA4
:103FA0002381422F50E0A216B10408F4A5018D5DD3
:103FB0009E4FFC0164817581675D7A4F822D9C2D37
:103FC0000E94BB30B501C8010E94B90C99818913C8
:103FD000D8CF0E94650DF40160837183828393833F
:103FE000D1CFA501B801822D9C2D0E94BB30CACF34
:103FF000A5E0B0E0EEEFFFE10C94EB2F6B0185E064
:10400000E82EF12C0AE215E09E012F5F3F4F45E2BA
:1040100055E061E080E00E94701F811549F095E055
:10402000FE013196A0E2B5E001900D929A95E1F77C
:1040300095E0E0E2F5E0D60101900D929A95E1F766
:104040002596E8E00C940730A8E0B0E0EAE2F0E260
:104050000C94ED2F88E0E82EF12C00E315E09E0192
:104060002F5F3F4F4CE155E063E082E00E94701FFC
:10407000182F811589F190912F0580911B059817B4
:1040800059F100E090913305809132058917F1F0E4
:10409000E92FF0E0E35DFA4F878187FB662760F93F
:1040A0009F5F937090933305909131059F5F90933C
:1040B00031058F770E944B0C082F8111E3CF84E0EC
:1040C00090E00E946D2F102F182302C00111F7CF2E
:1040D00080912F0580931B05812F2896E6E00C9494
:1040E0000930CF92DF92EF92FF921F93CF93DF932D
:1040F00000D000D0CDB7DEB7C0901605D090170520
:10410000E0901805F09019050E94650D6C197D0965
:104110008E099F0911E0643671058105910578F1DA
:104120000E94710DDC01CB010296A11DB11D898396
:104130009A83AB83BC8380914C0190914D01875D44
:104140009A4F20914B01422F50E0253010F044E06F
:1041500050E0BE016F5F7F4F0E94BB3085E090E072
:104160000E946D2F182F811551F00E94650D6093EC
:104170001605709317058093180590931905812FE4
:104180000F900F900F900F90DF91CF911F91FF90A4
:10419000EF90DF90CF9008958F929F92AF92BF9251
:1041A000EF92FF920F931F93CF93DF93CDB7DEB7BC
:1041B00029970FB6F894DEBF0FBECDBF88E0EAE7BF
:1041C000F5E08E010F5F1F4FD80101900D928A9587
:1041D000E1F780911105898749E050E06CE375E0D3
:1041E000C8010E94AE307C018090120590901305AA
:1041F000A0901405B09015050E94650D6819790905
:104200008A099B09E02F312F6436710581059105DC
:1042100010F4EF2811F18091540190915501875DC0
:104220009A4F20915301422F50E02A3010F049E07C
:1042300050E06E2F732F0E94BB3086E090E00E940A
:104240006D2F811559F00E94650D609312057093D2
:104250001305809314059093150581E029960FB6F8
:10426000F894DEBF0FBECDBFDF91CF911F910F91AC
:10427000FF90EF90BF90AF909F908F900895A3E034
:10428000B0E0E5E4F1E20C94E12F482E80910801C2
:10429000841123C090917A0593702091070130E03A
:1042A00081E09217130609F480E080930601809163
:1042B0007F0590910501981739F08093050140E042
:1042C00060E080E00E941E0C23E2421688F4E42D98
:1042D000F0E0E353FE4C0C944C3081E0E6CF80914B
:1042E0000601811529F040E060E080E00E941E0C8C
:1042F00080E0909104019F5F9093040181110CC0B4
:1043000082E080935B0180910601811105C041101C
:1043100003C083E080935B012396E2E10C94FD2FC0
:10432000809104010E94370C8983192F60917B05CD
:1043300070917C0580917D050E943E08062FF72E26
:10434000E82E5981452F50E05B834A837A81171705
:1043500009F010F4812F42C0EA81FB81E358FD4F40
:104360008081909105018923811539F02E2D4F2DE3
:10437000602F8A819B810E94110C6A817B816F5F13
:104380007F4F7B836A83E2CF809104010E94370CC8
:104390008983E92E80917B058A8300917C051091A9
:1043A0007D05682F702F812F0E943E08D62EC72EC4
:1043B000B82E80917E056A81680F702F812F0E9430
:1043C0003E08162F072FF82EB981AB2FB0E0BB8324
:1043D000AA83FA81EF1609F020F48E2D0E94C508F9
:1043E00088CFEA81FB81E358FD4F80813091050140
:1043F0003823311561F02F2D402F612F80FD03C030
:104400002B2D4C2D6D2D8A819B810E94110CEA81F0
:10441000FB813196FB83EA83DCCF809104010E940B
:10442000370C192FF0907C05E0907D0520917E05DA
:1044300000E4029F012D1124282F30E03B832A83C2
:104440005A81151709F008F485CFEA81FB81E358FA
:10445000FD4F80819091050189238115C1F0EA818A
:10446000FB81EE0FFF1FE754FE4F85AD82958F70E5
:1044700060917B05809F600D11247F2D8E2D0E9401
:104480003E08472F282F8A819B810E94110C4A8168
:104490005B814F5F5F4F5B834A83D2CF8091040182
:1044A0000E94370C192FF0907C05E0907D0520913B
:1044B0007E0500E4029F012D1124682F70E07B83AC
:1044C0006A839A81191709F008F444CFEA81FB81C5
:1044D000E358FD4F80819091050189238115E1F01A
:1044E000EA81FB81EE0FFF1FE754FE4F24AD209FB2
:1044F0009001112465E0359527956A95E1F7609163
:104500007B05620F7F2D8E2D0E943E08472F282F9E
:104510008A819B810E94110C8A819B8101969B83D9
:104520008A83CFCF8AE599E00E945D0EE2CE83E7D1
:1045300099E0FACF81EA99E0F7CF8FEC99E00E94F9
:10454000A00ED7CE8DEE99E0FACF8CE09AE00E94D3
:10455000F70ECFCE87E29AE0FACF82E49AE0E4CF7A
:1045600084E49AE0E1CF8DE49AE0DECF86E59AE03C
:10457000DBCF8FE69AE0EBCF80E89AE0E0CF89EAE4
:104580009AE0DDCF8AEB9AE0E2CF8EEC9AE00E94CF
:104590005D0FAFCE8CEF9AE0FACF8BE29BE0F7CFC6
:1045A000809104010E94370C782E092F809106011A
:1045B000811561F040E060E080E00E941E0CEFE8B1
:1045C000F4E08CE3DF011D928A95E9F78091040104
:1045D00081111BC0E0914504F0914604FB83EA83FE
:1045E0000E94590D2A813B81821B930B21E0893166
:1045F000910508F420E020934404499730F00E948C
:10460000590D9093460480934504C12CD12C812CE4
:1046100035E5532E4AEA642E332433947601912CE7
:10462000F701E754FE4F30813983371508F442C053
:10463000301708F03FC0432F50E05B834A83FA01F4
:10464000E358FD4F8081909105018923811509F47C
:1046500030C0B70161577B4F5B01DB011C91612FBB
:10466000252D621B08F460E070917C05362D310F1A
:1046700008F43FEF40917D05232F220F230F2E5F7B
:10468000249F212D1124362D361B632F822F0E944B
:104690003E08472F282F8A819B810E94110C809110
:1046A0004404811531F0432D141B08F410E0D501AA
:1046B0001C9383949394BFEFEB1AFB0AE6E09E12DF
:1046C000AFCFF6E3CF16D10411F4802F87CE26E0CA
:1046D000C20ED11C3EE0831608F4A0CFF6CF509056
:1046E0007D05E52CF12CA701440F551F4E0D5F1DD4
:1046F00056954795569547955B834A835A815983CA
:104700008FEF90E0B7010E943830362E809106017D
:10471000811571F040E060E080E00E941E0CEFE83F
:10472000F4E08CE3DF011D928A95E9F710924804CA
:10473000809147048F5F809347048FE8C82E84E000
:10474000D82EA12CB12C3701EA81FB816E1A7F0A89
:1047500045018601212C80914804822981114BC09A
:104760000E949E30853595400CF045C0D6015C9284
:10477000F401E754FE4FE081EF3FD9F0D8012C91CE
:10478000F0E0B981B21708F045C030E04A815B81A2
:10479000241B350B249FC001259F900D349F900D45
:1047A0001124B3010E942430262F452DCF010E94F1
:1047B000110C23940A5F1F4F56E0850E911C6AE08E
:1047C0002612C9CF7FEFA71AB70A8FEFC81AD80AE7
:1047D00096E0A916B10409F0BBCF809147043812C6
:1047E00002C010924704809148048F5F8D31F8F425
:1047F000809348047DCDF8018081811509F4B8CFFC
:10480000851508F0B5CF909147043912B1CF81508A
:104810008083AECF2E9DC0012F9D900D11246A8103
:104820007B810E942430462F20E060E0BFCF1092B1
:1048300048042FEB34E089E045E954E09FEF950D03
:104840008901EFE8F4E0893021F466A9561201C02D
:1048500096ABD8016D918D01651548F07D01B1E0F1
:10486000EB1AF108D7019C93D80115965C9231960A
:104870004E175F0741F78150265031098111E0CF73
:1048800037CD84E69BE00E94B10F33CD8BE69BE0F1
:10489000FACF8091590421E0382F321B08F430E020
:1048A000832F62E77BE00E941D1023CD62E77BE04F
:1048B00080E0F9CF8091590421E0482F421B08F491
:1048C00040E0842F6BE87BE0EECF6BE87BE0F0CF3D
:1048D0008091590421E0582F521B08F450E0852F95
:1048E00063EC7BE0E0CF63EC7BE0E2CF80915904A6
:1048F00021E0682F621B08F460E0862F69EF7BE0FF
:10490000D2CF69EF7BE0D4CF8F929F92AF92BF92CC
:10491000CF92DF92EF92FF928090400490904104FA
:10492000A0904204B090430480914605811509F49B
:1049300051C00E94650D6B017C01C818D908EA08B6
:10494000FB080E94710D282F60934004709341046E
:104950008093420490934304A091CB04EBECF4E0E9
:104960008A2F30E088248A94982CA12CB12C8C18A2
:104970009D08AE08BF08A31330C08093CB0480917C
:10498000110581113AC030917A05832F837081150A
:1049900019F0832F8695869530915B013230E9F1CD
:1049A00070F5311137C0109204016093490470937F
:1049B0004A0420934B0490934C0489E2EBECF4E01E
:1049C000A9E5B4E001900D928A95E1F781E080932A
:1049D0005B0117C00E94710DAECF418D528D8416C0
:1049E0009506A104B10420F481503F5F3296C3CFF5
:1049F0004C0D5D1D528F418FF8CF80E0CDCF33300D
:104A0000B9F0FF90EF90DF90CF90BF90AF909F9064
:104A10008F9008950E943F21F4CF809308018091E8
:104A20007A058370809307010E94C11183E0CFCF84
:104A300080918205811551F048E050E067E170E017
:104A40008AE795E00E94E93010928205C0904904FF
:104A5000D0904A04E0904B04F0904C0480914605BD
:104A6000811571F00E94650D6C197D098E099F09F1
:104A7000603171058105910520F210925B01C1CF73
:104A80000E94710DF1CFCF93C82F811591F08091C5
:104A9000110581110EC00E943F21109208018091E2
:104AA0007A058370809307010E94C11183E080938F
:104AB0005B01C0931105CF910895AFE0B0E0E3E64C
:104AC000F5E20C94E22FFE0131968AE0DF011D929F
:104AD0008A95E9F783E1E82E81E0F82E8F0198E1CD
:104AE000692E91E0792E2F01AA24A394B12C33E1F1
:104AF000832E31E0932EF70181917F018F3F09F4DE
:104B00003EC0F894E82FE295EF70F0E021A18F709D
:104B1000A50102C0440F551F8A95E2F7CA01922FE2
:104B2000982B91A392A18095892382A3789400C0A9
:104B3000EDE0F1E031E0312C21912F3F79F0A22F0F
:104B4000A295AF70A05EB0E08C9190E02F7002C093
:104B5000959587952A95E2F780FF82C080E0382AF4
:104B6000330F8E169F0641F7F70182918F3F11F0A8
:104B70000E94210850EA5A95F1F7D8013C920F5F44
:104B80001F4F6E147F0409F0B6CF4AE050E0B20127
:104B90008DE494E00E94AE306C01892B41F08AE0F4
:104BA000F201ADE4B4E001900D928A95E1F7009135
:104BB000580410E00B571B4FC114D10409F452C024
:104BC00081E0809353030E94590D90935203809388
:104BD000510380914605811509F4C9C07E01BBE0EF
:104BE000EB0EF11C85E0F70111928A95E9F7D09060
:104BF0004505FAE0DF1608F059C028EF3FE146E628
:104C000051E0B701C8010E943F12811509F473C039
:104C100024E230E243E751E0B701C8010E943F12AD
:104C2000811509F468C021E730E24BE751E0B70194
:104C3000C8010E943F12811509F45DC02CEC30E2DE
:104C400046E851E0B701C8010E943F12811509F4FE
:104C500052C04AE0D41608F07DC01092450567C0E6
:104C6000832F7DCF80915303811509F4B2CFE0905B
:104C70005103F09052030E94590D8E199F09059718
:104C800008F4A7CF45E050E06DE474E0C8010E944D
:104C9000AE30892B41F085E0EDE4F4E0D8010190DD
:104CA0000D928A95E1F71092530393CFA0904E0393
:104CB000B0904F030E94590D8A199B09843F91407F
:104CC00008F09BCF80915003811509F43FC085E027
:104CD000D7011D928A95E9F710925003A0915704CD
:104CE000B0E0AB57BB4F85E0FE013B9601900D92C3
:104CF0008A95E1F72BC0809145058F3F99F40E947A
:104D0000590D90934F0380934E038091830580FF4C
:104D1000D9CF8AE491E09F938F930E947D040F90F6
:104D20000F90D0CF8F5F809345058A3040F78091F8
:104D3000570490E045E050E0B7018B579B4F0E942D
:104D4000AE3021E020935003892B41F62F96E1E10C
:104D50000C94FE2F8091830580FF7FCF87E391E045
:104D60009F938F930E947D040F900F9076CF85E0E4
:104D7000F801AAE2B5E001900D928A95E1F765E0AD
:104D800070E08AE295E00E94B90C8093290588E0E2
:104D9000EEEFF4E0A0E3B5E001900D928A95E1F723
:104DA00068E070E080E395E00E94B90C80932F05E5
:104DB000C0903805D0903905E0903A05F0903B0559
:104DC00080914A0390914B03A0914C03B0914D0305
:104DD000C816D906EA06FB06B1F0C0924A03D09283
:104DE0004B03E0924C03F0924D030E94650DC61AEE
:104DF000D70AE80AF90AC0924805D0924905E0921C
:104E00004A05F0924B0588E0ECE3F5E0AAE7B5E04F
:104E100001900D928A95E1F7809144050E94432507
:104E200095CFCDB7DEB768970FB6F894DEBF0FBE4B
:104E3000CDBF85B7806885BF85B7806885BF84B7DB
:104E4000877F84BF0FB6F894A89580916000886131
:104E500080936000109260000FBE80E890E00FB673
:104E6000F89480936100909361000FBE81E080937D
:104E70000C0180E691E190934103809340030E94EE
:104E80003E0E0E94E6108091E20084608093E20072
:104E9000789480918404811599F08091E9001091B3
:104EA000EC008F70179511271795182B1092E900B9
:104EB0008091E80083FD0E947D141F701093E9002B
:104EC00082E084BD93E095BD9AEF97BD80936E001C
:104ED000109248051092490510924A0510924B0510
:104EE0008091D80080618093D8002AE12A95F1F75B
:104EF00000C08091D900182F117080FD04C00E945D
:104F00003E0E109284041093460555985D988FE8E4
:104F100091E00197F1F700C0000088274D99839533
:104F200080934705809318018091460581110E9466
:104F30007F2EEEEFF4E088E0DF011D928A95E9F71D
:104F40008091180191E08927880F80930A0580914C
:104F5000180182E080930F058091180160E080E0E5
:104F60000E946C0C61E080E00E946C0C60E081E0CB
:104F70000E946C0C61E081E00E946C0CEFE8F1E0B3
:104F80003197F1F700C0000010E080910F0518176D
:104F900008F4EFC180911801811124C085E0E1E996
:104FA000F1E0DE01199601900D928A95E1F785E016
:104FB000FE013996A3E1B1E001900D928A95E1F7E7
:104FC00086E0E7E9F1E0DE01119601900D928A9505
:104FD000E1F786E0FE013196ADE0B1E001900D927F
:104FE0008A95E1F78091180190E0811101C095E068
:104FF0009093580485E0891B8093570403E111E0E6
:1050000078E1E72E71E0F72ED8018D918D018F3F69
:1050100011F00E942108E016F106B1F70DE011E051
:1050200063E1E62E61E0F62EF80181918F018F3F5A
:1050300011F00E942108E016F106B1F78AE0E5E8D8
:10504000F4E0DF01282F1D922A95E9F7EDE4F4E062
:10505000DF011D928A95E9F780E090E00E94E3303D
:10506000853E9E4F09F461C065EE7EEF80E090E0E2
:105070000E94173160E082E090E00E94F93081E008
:1050800090E0909388058093870561E083E090E04D
:105090000E94F93060E074E184E090E00E941731F2
:1050A00060E086E090E00E94F93060E087E090E008
:1050B0000E94F93040E050E0BA0188E090E00E94A0
:1050C0000B3160E083E290E00E94F93060E08CE018
:1050D00090E00E94F93060E08DE090E00E94F930AD
:1050E00019821A821B821C821D821E821F821886D0
:1050F00048E050E067E170E0CE0101960E94E9309F
:1051000040E050E0BA018FE190E00E940B3140E0B6
:1051100050E0BA018FE090E00E940B3140E050E097
:10512000BA0183E190E00E940B3182E090E00E949E
:10513000DB308093830584E090E00E94E33090931D
:105140008D0580938C0583E090E00E94DB3090E039
:105150000E9496040E94AC0C1092590440E150E069
:105160006FEF70E082E794E00E94C4301092CB04AD
:1051700040E150E06FEF70E084EE94E00E94C430B4
:1051800081E08093820548E050E067E170E08AE7C3
:1051900095E00E94CB301092820580917A05843090
:1051A000B8F58091830580FF14C08BEC94E09F9349
:1051B0008F930E947D04809183050F900F9080FF54
:1051C00008C08BEB93E09F938F930E947D040F9018
:1051D0000F9085E380937A0580915C0190915D0149
:1051E000A0915E0180937B0590937C05A0937D0543
:1051F0008FE780937E058FEF80937F0548E050E036
:1052000067E170E08AE795E00E94E930109282053C
:105210008091830580FF89C081EB94E09F938F93F9
:105220000E947D04809183050F900F9080FF7DC0C8
:1052300080917A0583701F928F9382E994E09F9307
:105240008F930E947D04809183050F900F900F90A3
:105250000F9080FF6AC080917A05869586951F928F
:105260008F9385E794E09F938F930E947D048091B4
:1052700083050F900F900F900F9080FF56C0809184
:105280007B051F928F9387E594E09F938F930E94F5
:105290007D04809183050F900F900F900F9080FFF9
:1052A00044C080917C051F928F9389E394E09F9383
:1052B0008F930E947D04809183050F900F900F9033
:1052C0000F9080FF32C080917D051F928F938BE1FC
:1052D00094E09F938F930E947D04809183050F90AB
:1052E0000F900F900F9080FF20C080917E051F923D
:1052F0008F938DEF93E09F938F930E947D04809115
:1053000083050F900F900F900F9080FF0EC080913B
:105310007F051F928F938FED93E09F938F930E9451
:105320007D040F900F900F900F9080914605811192
:1053300002C00E94822E89E191E090934F058093F4
:105340004E0580918404853009F067C08091830503
:1053500080FF08C080E295E09F938F930E947D04B8
:105360000F900F9008E110E040E4F42E52E1E52E9A
:1053700048C060E0812F0E948F0C082F61E0812FD0
:105380000E948F0CE12FF0E0E55FFA4F880F802B31
:1053900080831F5FFACD80918404843031F10E94B4
:1053A000842481E00E944325109282040FB6F89471
:1053B000A895009360000FBEF092600083B7817FD4
:1053C000846083BF83B7816083BF7894889583B7F7
:1053D0008E7F83BF0FB6F894A89580916000886196
:1053E00080936000109260000FBE0E945D25E5E88A
:1053F000F4E08191811129C22FE834E02E173F0794
:10540000C1F780918404853009F4C5CF0E945114FE
:105410000E94D10C80E00E9443250E945D2544EF4C
:1054200054E05F874E8785E894E0998B888BDC0198
:10543000FA0191918D912EEF34E02E173F0709F478
:10544000FFC09817B1F38091830581FD16C130919B
:1054500046053C8B612C712CF12CA889B9899D9053
:10546000B98BA88BEE85FF858191FF87EE87891523
:1054700009F4DCC0282E29246301E12C88248394BC
:10548000822D8821811509F4C6C0392C3820FC8969
:10549000F115A1F0E982FA820E94590D9C838B8359
:1054A00021E02D8391E0311001C090E09E8349817D
:1054B0005A816B817C818D810E94C01E311439F02C
:1054C000F601E754FE4F80818F3F09F018C1412C4F
:1054D000042D10E08091CB04840D9927991F099722
:1054E0006CF1E8E0AE2EB12CA01AB10AB8016453F9
:1054F0007B4FA5018CEC94E00E94BB30B8016C524C
:105500007B4FA50184ED94E00E94BB30A501440FC0
:10551000551FB801660F771F6C517B4F84EE94E0E6
:105520000E94BB30B80164527B4FA5018CED94E022
:105530000E94BB3088E084198093CB04411419F198
:105540004091CB04852D90E0242F30E0F901E55304
:10555000FB4FDC01AA0FBB1FAB50BE4F5C915183C8
:10556000880F991FDC01A754BE4FDD968C9181876F
:10557000518AF901EE0FFF1FE553FB4F128E118E7A
:105580004F5F4093CB04311409F445C080917A05F4
:105590008C7F8C3509F03FC0F601E754FE4F8081C7
:1055A0008F3F09F438C0A12CB12C312C90E09C0124
:1055B000220F331FA9014B505E4F5E8B4D8BD901DB
:1055C000AA50BE4FB88FAF8BF601E157FB4FFB8B54
:1055D000EA8B8501412CF801E754FE4F80818F3F13
:1055E00061F0F31090C0E4108EC0AA89BB892C91A1
:1055F00030E2230F08F42FEF2C9343940F5F1F4FDB
:10560000F6E04F12E8CF339426E0A20EB11C3CE343
:10561000A316B104F1F6E394880C4FEFC41AD40A30
:1056200056E0E5122DCFEE85FF859292F39486E049
:10563000680E711C9AE0F91210CF0E94710D04C01F
:10564000981301CF0E944D1F0E948424F0904605BC
:10565000F11419F00E94BD17F82E80911A058115DA
:1056600051F010921A0580910005809301058091F8
:10567000FE048093FF04E12CBBC085E495E09F937A
:105680008F930E947D040F900F90B5E8CB2EB4E06D
:10569000DB2E00E010E080E4882E85E0982E9DE36C
:1056A000A92E95E0B92E28E3E22E25E0F22E36E36E
:1056B000632E35E0732E1F930F939F928F920E945B
:1056C0007D04BF92AF920E947D04D6018D916D0141
:1056D0000E9486041F928F93FF92EF920E947D0496
:1056E0007F926F920E947D040F5F1F4F0FB6F89458
:1056F000DEBF0FBECDBF0A301105E9F6A8CE582E89
:1057000044244394E5CE90E0AD89BE894C91FC01E0
:10571000EE0FFF1FEB50FE4F2081421B550BEF8910
:10572000F88D2081880F991FFC01E754FE4F85AD4D
:10573000281B330B449FB001459F700D700D112441
:10574000229FC001239F900D900D1124860F971F5B
:105750000E94DC08382F893208F04FCF28E2231B43
:1057600008F420E0F801E157FB4F213108F020E177
:105770003081320F08F43FEF30833FCF61E08E2D50
:105780000E948F0C182F60E08E2D0E948F0C110F3D
:10579000812B0E2D10E0D801A55FBA4FEC919E2F02
:1057A0009370891721F1EE0FEE0FE82BEC938091A7
:1057B0000A058E0DEF70F0E0EF53FD4F0A5F1A4FB0
:1057C000D080D8019C91D90EB4E060E0DB1624F4BF
:1057D000EDEFDE161CF461E00E944B0C8D2DDD0C0C
:1057E000990B64E070E00E943830D8018C93E39408
:1057F00080910F05E81610F280914605811519F089
:105800000E94BD17F82AF1100E94710D0E94D10C60
:10581000182F80911005181709F493CD10931005D7
:105820000E94650D809183058570853009F089CDD2
:105830001F921F9384E595E09F938F930E947D04B0
:105840000F900F900F900F907CCD80918304811565
:1058500009F4D7CD30E139BDE9BC09B400FEFDCF74
:105860008091D8008F7D8093D8008091E000826085
:105870008093E0008091E00081FDFCCF0E945114F4
:10588000C0CD1F921FB61F9211248F939F93AF9389
:10589000BF9380918204811113C080916C03909119
:1058A0006D03A0916E03B0916F034196A11DB11DD0
:1058B00080936C0390936D03A0936E03B0936F037A
:1058C000BF91AF919F918F911F901FBE1F90189510
:1058D00078941F921FB61F9211248F939F93AF93BA
:1058E000BF9380916C0390916D03A0916E03B09172
:1058F0006F030196A11DB11D80936C0390936D03FE
:10590000A0936E03B0936F03BF91AF919F918F915E
:105910001F901FBE1F9018951F920F920FB60F92E7
:1059200011242F933F934F935F936F937F938F93A4
:105930009F93AF93BF93EF93FF938091E10082FF1A
:1059400015C08091E20082FF11C08091E1008B7F41
:105950008093E100209156032F5F822F62E30E9423
:105960001830911509F4DCC0209356038091DA00B9
:1059700080FF2CC08091D80080FF28C08091DA0081
:105980008E7F8093DA008091D90080FFFEC080E195
:1059900089BD82E189BD09B400FEFDCF81E080931D
:1059A000840480E792E09F938F930E947D0480910E
:1059B00059030F900F90811109C00E943E0E0E9462
:1059C000E6108091E20084608093E2008091E10023
:1059D00080FF22C08091E20080FF1EC08091E20023
:1059E0008E7F8093E2008091E20080618093E200EC
:1059F0008091D80080628093D80019BC85E08093A4
:105A0000840488E792E09F938F930E947D0483E053
:105A100080930C010F900F908091E10084FF37C0BC
:105A20008091E20084FF33C080E189BD82E189BDBD
:105A300009B400FEFDCF8091D8008F7D8093D800FF
:105A40008091E1008F7E8093E1008091E2008F7E63
:105A50008093E2008091E20081608093E200809177
:105A60005803811509F49FC084E0809384048CE777
:105A700092E09F938F930E947D04809184040F9005
:105A80000F90843009F097C082E080930C018091E0
:105A9000E10083FF34C08091E20083FF30C0809139
:105AA000E100877F8093E10082E08093840410927C
:105AB00058038091E1008E7F8093E1008091E200A5
:105AC0008E7F8093E2008091E20080618093E2000B
:105AD00042E060E080E00E94B6108091F0008860B3
