:100000000C949F030C94D42E0C94D7030C94D70318
:100010000C94D7030C94D7030C94D7030C94D703F8
:100020000C94D7030C94D7030C949A2C0C94EB2DBE
:100030000C944F2C0C94D7030C94D7030C94D70337
:100040000C94D7030C94D7030C94D7030C94D703C8
:100050000C94D7030C94762C0C94D7030C94D703F0
:100060000C94D7030C94D7030C94D7030C94D703A8
:100070000C94D7030C94D7030C94D7030C94D70398
:100080000C94D7030C94D7030C94D7030C94D70388
:100090000C94D7030C94D7030C94D7030C94D70378
:1000A0000C94D7030C94D7030C94D7030631FF09A3
:1000B00074A1010975150026FF00952075088102BD
:1000C000C005010980A101850319012AB7001501A6
:1000D00026B700950175108100C0050C0901A1012A
:1000E000850419012AA002150126A00295017510A8
:1000F0008100C005010906A101050719E029E715DE
:100100000025019508750181029501750881010599
:1001100007190029FF150026FF00950675088100C4
:10012000050819012905150025019505750191029C
:10013000950175039101C054617267657420636F06
:100140006E6E65637465640D0A0054617267657450
:1001500020646973636F6E6E65637465642C2074CC
:1001600068726F74746C696E6720636F6E6E65631E
:1001700074696F6E20617474656D7074730D0A001C
:10018000726762206D617472697820736574207380
:1001900070656564205B25735D3A2025750A0072E1
:1001A0006762206D6174726978207365742068736A
:1001B00076205B25735D3A2025752C25752C2575D9
:1001C0000A00726762206D6174726978206D6F64D5
:1001D00065205B25735D3A2025750A0009025400ED
:1001E000030100A0FA090400000103010100092134
:1001F00011010001224400070581030800010904E0
:100200000100010300000009211101000122320058
:100210000705820320000109040200010300000019
:1002200009211101000122150007058303200001A7
:10023000120100020000000810CB566420060102E3
:1002400000011A0349007200690073002000520087
:10025000650076002E0020003600620000000E03CC
:100260004B0065006500620069006F000000040338
:1002700009045B435D005B445D005B535D005B57BD
:100280005D005B525D00726762206D617472697817
:1002900020746F67676C65205B25735D3A20726719
:1002A000625F6D61747269785F636F6E6669672EF5
:1002B000656E61626C65203D2025750A00000101B4
:1002C0000101010101010102020202020202020215
:1002D00003030303030303030404040404040405E5
:1002E00005050505060606060607070707070808A9
:1002F0000808090909090A0A0A0B0B0B0C0C0C0D5A
:100300000D0D0E0E0E0F0F0F1010111111121213F2
:10031000131414151516161717181819191A1A1B6D
:100320001B1C1D1D1E1E1F202021222223242425CC
:100330002626272829292A2B2C2D2D2E2F30313205
:1003400032333435363738393A3B3C3D3E3F404115
:1003500042434445464748494A4C4D4E4F505153FD
:1003600054555658595A5B5D5E5F616264656668B4
:10037000696B6C6D6F7072737577787A7B7D7E8038
:1003800082838587888A8C8E8F91939596989A9C84
:100390009EA0A2A3A5A7A9ABADAFB1B3B5B7BABC98
:1003A000BEC0C2C4C6C9CBCDCFD1D4D6D8DBDDDF69
:1003B000E2E4E7E9EBEEF0F3F5F8FAFDFF656563DB
:1003C0006F6E6669675F7570646174655F7267629E
:1003D0005F6D61747269785F64656661756C740ADB
:1003E000007267625F6D61747269785F636F6E66D9
:1003F00069672E666C616773203D2025640A007270
:1004000067625F6D61747269785F636F6E6669675A
:100410002E7370656564203D2025640A0072676252
:100420005F6D61747269785F636F6E6669672E686D
:1004300073762E76203D2025640A007267625F6D18
:1004400061747269785F636F6E6669672E68737630
:100450002E73203D2025640A007267625F6D61740F
:100460007269785F636F6E6669672E6873762E684F
:10047000203D2025640A007267625F6D61747269B5
:10048000785F636F6E6669672E6D6F6465203D20CF
:1004900025640A007267625F6D61747269785F63D8
:1004A0006F6E6669672E656E61626C65203D202502
:1004B000640A007267625F6D61747269785F636F6E
:1004C0006E66696720454550524F4D0A007267625B
:1004D0005F6D61747269785F696E69745F64726977
:1004E00076657273207267625F6D61747269785F9E
:1004F000636F6E6669672E6D6F6465203D20302ED8
:100500002057726974652064656661756C74207625
:10051000616C75657320746F20454550524F4D2EA8
:100520000A0073757370656E64696E67206B657918
:10053000626F6172640D0A000A0025303862003A69
:10054000200025303258000A722F632030313233B8
:10055000343536370A006C65645F7461736B3A201A
:10056000253032580A004661696C656420746F203A
:10057000657865637574652025730A00167C1E0016
:100580001F002000210022002B0014001A00080088
:1005900015001700E00004001600070009000A001B
:1005A000E1001D001B00060019000500000000000E
:1005B000E300777C28004A002A0027002600250057
:1005C000240023004C00130012000C0018001C0033
:1005D000340033000F000E000D000B00E500380062
:1005E000370036001000110000000000E600787CA3
:1005F0002C004D0035021E021F02200221022202A1
:100600003500010052000100007C01004C00500048
:1006100051004F0001002F004378037C01000100CE
:1006200001002F0200000000010001004C00260222
:100630004B00270226022502240223024E006200FC
:10064000610060005F00010031022E025E005D006B
:100650005C00300001002D005B005A0059003002A0
:1006600000000000620001004C00270245003A0033
:100670003B003C003D003E0042781E021F0220026B
:10068000210222024378AC00AB00A9004B002D02EE
:10069000A800AD00AE00AA004E002D000000000032
:1006A0000100010001002602440043004200410015
:1006B00040003F00007C270226022502240223027C
:1006C00031004978477845784A002E00037C4A7803
:1006D000487846784D002E0200000000010001001D
:1006E000010001000A002530325820006B65796254
:1006F0006F6172645F7265706F72743A2025303278
:1007000058207C20004F6E6573686F743A206163D7
:10071000746976653A2025640A0044454255473A93
:100720002064697361626C65642E0A004445425519
:10073000473A20656E61626C65642E0A00001124E0
:100740001FBECFEFDAE0DEBFCDBF04B603FE18C098
:100750008091C8059091C905A091CA05B091CB05BB
:100760008730904BA740B04B59F41092C8051092B7
:10077000C9051092CA051092CB05E0E0F8E309958F
:1007800025E0ACE3B3E001C01D92A83CB207E1F75D
:1007900013E0A0E0B1E0E0E0F4E602C005900D92C5
:1007A000AC33B107D9F70E9429270C948E310C94F1
:1007B0000000FF93EF93E0913C03F0913D033097ED
:1007C00009F00995EF91FF910895FC018591803022
:1007D00011F0EFDFFBCF0895FF27E0E230E247FFA3
:1007E0000CC0419597FF09C0EDE26095709580952A
:1007F0009095611D711D811D911D27FF02C02195DE
:1008000030E350E2AA27660F771F881F991FAA1F9F
:10081000A41710F0A41B63955A95A9F7AA3008F005
:10082000A95FA05DAF93F3956115710581059105F1
:1008300041F7ED3211F4EF93F395F21718F43F936B
:10084000F395FBCF8F91B5DFFA95E1F70895E99124
:10085000F9918591803021F0853219F0AADFF9CF26
:10086000089520E0E89455915532C1F3503311F4C6
:10087000689455915A3348F4505390F3220F022E46
:10088000220F220F200D250FF4CF0EF42195899110
:100890009991533619F3533729F1533559F1BC0166
:1008A00088279927E8945C3621F489919991689476
:1008B0005591543639F446EF7EF077FF0DC08FEF37
:1008C0009FEF0AC055374AE039F0583540E121F032
:1008D000523642E009F00895FF93EF937DDFEF91E8
:1008E000FF91B7CFFF93EF93FC0181918030B9F373
:1008F00060DFFBCFFF93EF9368DFF1CFDF93CF9300
:10090000CDB7DEB72596A3DFCF91DF91089582950D
:10091000982F990F990F9C7C869586958373982BB9
:10092000892F880F8A7A96959575892B08959093CB
:10093000800580937F0508959093820580938105BB
:10094000089521E030E002C0220F331F8A95E2F7BC
:100950008091810590918205822B932B0E949C04AB
:10096000089521E030E002C0220F331F8A95E2F79C
:100970002095309580918105909182058223932363
:100980000E949C0408959A3090F5863080F5E82FF7
:10099000F0E086E0989FE00DF11D11248E2F877006
:1009A00041E001C0440F8A95EAF783E0F695E795A8
:1009B0008A95E1F7EE0FFF1FEE0FFF1FE05BFA4F86
:1009C00020E030E070E05191DF01CB01022E02C047
:1009D000969587950A94E2F78170819585278423FF
:1009E00085278E932F5F3F4F2430310561F708959F
:1009F0009A3078F5863068F5E82FF0E086E0989F29
:100A0000E00DF11D11249E2F977083E0F695E79578
:100A10008A95E1F7EE0FFF1FEE0FFF1FE05BFA4F25
:100A200040E050E080E0219130E0092E02C0369590
:100A300027950A94E2F721703327042E01C0220F74
:100A40000A94EAF7822B4F5F5F4F4430510559F704
:100A5000089580E00895E0918105F091820521E0FC
:100A600030E0D90102C0AA0FBB1F8A95E2F7CD0181
:100A7000D90102C0AA0FBB1F6A95E2F7BD018A2BFC
:100A8000972B02C0220F331F4A95E2F7AF0148238C
:100A900059238417950731F4CF01822B932B0E94A1
:100AA0009C04089520953095C9018E239F23F7CF8C
:100AB0008091880590918705981301C008958F5FF4
:100AC0008770FACF90918305809589238093830561
:100AD000282F277021110DC0891759F09091850595
:100AE00092FF07C08695869586950E94B104109264
:100AF00083050895982F909580917C058923809394
:100B00007C0508957A30B8F46630A8F48330B0F4E8
:100B1000E62FF0E096E0799FE00DF11D11249CE3B3
:100B2000899FE00DF11D1124EE0FFF1FE458FA4FCD
:100B300085919591089580E090E0089581E0FCCF43
:100B40009C01803E910509F448C0D8F48133910599
:100B500009F47DC048F48932910509F46DC08A9783
:100B600009F47CC0C90108958933910551F1823897
:100B7000910539F1C597B1F78091840585FFF2CFD2
:100B800029C0843E910509F447C048F4823E91058E
:100B900099F1833E9105A9F121EE30E0E3CF863E45
:100BA000910509F444C0873E9105E1F680918405E2
:100BB00083FD61C09091850591FF2BC024EE30E04C
:100BC000D1CF809184058370811152C080918505B9
:100BD00083FFC8CF29E230E0C5CF8091840580FD36
:100BE00033C09091850590FFBDCF23EE30E084FFA8
:100BF000B9CF20E030E0B6CF8091840582FDF5CFFB
:100C0000B1CF8091840582FD30C09091850590FD23
:100C10002FC084FFA7CFEDCF8091850581FFA2CFA4
:100C20008091840527EE30E084FDE3CF9BCF809157
:100C3000840583FDF7CF96CF8091840585FD1EC086
:100C40008091850583FF8ECF29E330E08BCF8091A3
:100C5000840586FF87CF2AE230E084CF8091840527
:100C600086FF80CF21E330E07DCF22EE30E07ACFE7
:100C700020EE30E077CF26EE30E074CF25E330E091
:100C800071CF9091840592FF10C041E0282F24710C
:100C9000243009F040E031E0282F2871283009F095
:100CA00030E0431711F02CE0822793FF10C041E0A1
:100CB000282F2471243109F040E031E0282F2871D9
:100CC000283109F030E0431711F02CE082273091F1
:100CD000850530FF10C051E0282F2171213009F027
:100CE00050E041E0282F2871283009F040E05417E7
:100CF00011F029E0822731FF10C041E0282F217137
:100D0000213109F040E031E0282F2871283109F025
:100D100030E0431711F029E0822794FD877E089583
:100D20001F93CF93DF930E94A005EC01811522E56C
:100D3000920708F055C0811540E5940708F0D1C02E
:100D4000803E910520F58D3C910508F0A4C0883ABD
:100D5000910570F4853A910508F09AC081309105AB
:100D6000D1F10497813A9105B0F1C0E0D0E033C0F1
:100D7000885A91094B97C8F7C85AD0E0CC0FDD1FAD
:100D8000C153DD4F0990D881C02DD46424C0811592
:100D900050E49507C0F4C11580E2D80708F0B7C049
:100DA000C83ED105C0F0CE019A9581159F41E8F665
:100DB0008D2F0E944106182FCE0199270E94A00571
:100DC000EC01D12B08C099270E94A005CC27DF7029
:100DD000C82BD92BD06ACE01DF91CF911F910895F6
:100DE000803842E59407C8F5803652E5950708F04B
:100DF0005BC0C03482E5D807D0F4C03292E5D90791
:100E000008F04BC08C2F8695869520E2829FC0010A
:100E10001124C37021E030E0A90102C0440F551F26
:100E2000CA95E2F7EA01C82BD92BDD68D4CF8C2F05
:100E300086958695877050E2859FC0011124C37006
:100E400021E030E0A90102C0440F551FCA95E2F726
:100E5000EA01C82BD92BDC68BECF803C52E5950750
:100E600058F48F71C03AD245A0F590E0982F8827AA
:100E7000EC01C46FD06AAFCF805C9245809708F0D8
:100E800074CFDC2FCC27CC27DF71C06FD06AA3CF03
:100E9000A497D064A0CFD0659ECFCF71D0E0DC2FD7
:100EA000CC27C16FD06A97CF86958695877020E250
:100EB000829FC0011124C37021E030E0A90102C06B
:100EC000440F551FCA95E2F7EA01C82BD92BDA68FF
:100ED00082CF0E944106C82FD0E0DC2FCC27D06201
:100EE0007ACF8F710E94410693E0CC0FDD1F9A9557
:100EF000E1F7CC27DF70282F30E084FF04C050E1F9
:100F0000859F90011124C22BD32BD06964CF8D2FE4
:100F10008F710E944106182FCE0199270E94A005CB
:100F2000EC01D12BDCCFA0E0B0E0E9E9F7E00C94D4
:100F3000F82F8C01E0908105F090820580917F056B
:100F400090918005E82AF92ACFE0D0E0CC24C39420
:100F5000D12CC6010C2E02C0880F991F0A94E2F70B
:100F60008E219F21892B49F4219798F7B12C8B2D45
:100F7000CDB7DEB7E9E00C941430BC2EB8018C2F4D
:100F80000E9482050E949006019771F3F0CF0F93A3
:100F90001F93CF93FC01858100811181811591F010
:100FA000611581F0C8010E949307C82F682FC801FE
:100FB0000E94C304B8018C2F0E948205CF911F911B
:100FC0000F910895C8010E94F804C82FF3CFCF9362
:100FD000DF93D82FC92F0E9493076D2F7C2F0E947B
:100FE00082050E949006DF91CF910895FC018481D3
:100FF0008115A1F0808191810E94E707282F9295A9
:101000009F70963099F060F4925F9F70923030F448
:10101000203FB1F038F481E0283E38F080E00895B8
:101020009A5FF3CF81E0243FC9F7089591E0213F13
:1010300009F090E081E0283E08F080E0892B0895D7
:1010400081E00895F894E82FE295EF70F0E041A177
:101050008F7021E030E0B90102C0660F771F8A95DA
:10106000E2F7CB01962F9095942391A392A1892B1F
:1010700082A37894089581E0809312050895CF9219
:10108000DF92EF92FF921F93CF93DF93172FE82FFA
:10109000F0E0E354FD4F71110CC0E4918E2F7E2FD0
:1010A0006E2FDF91CF911F91FF90EF90DF90CF9047
:1010B0000895E62EF12CC72ED12CF491EF2F86E067
:1010C000689F90011124CFEFD0E0C901BE010E94BA
:1010D0003230AB01EE0CFF1C65E5649FC001659FDB
:1010E000900D1124E81AF90A6E2D660F6E0D7E011F
:1010F000EC18FD08FE9DD001FF9DB00D11248B2F33
:10110000169F70011124EF2CFF246E01CE18DF080A
:101110007601FE9D6001FF9DD00C11247E01E61A30
:10112000F108B701169F7001179FF00C1124EF2CE6
:10113000FF24CE19DF09FC9F7001FD9FF00C1124E4
:101140007F2D43305105C1F02C3F334058F44130DE
:101150005105B1F04230510509F0A2CFEB2F8F2D90
:101160007F2F9ECF4430510571F04630510509F470
:1011700097CF7B2F8D2D94CF7D2DEB2F8F2F90CF61
:101180007F2FED2D8DCFEF2D7B2FF8CF982F8091D6
:101190003F05811529F081E0923208F080E0089542
:1011A00081E09434FACF9C0180E090E0269F812D6D
:1011B000369F800D911D11240895AC018230910558
:1011C00008F408959FEF413E8EE1580740F4CA01AC
:1011D00025E0969587952A95E1F798E0980F61E0CC
:1011E000E62FE90FFF27FF1F9F0135952795822FD7
:1011F000229FF001239FF00DF00D11244E175F0781
:1012000038F49FEF920F961758F78FEF860F0895D7
:101210002F3FE9F361E0620FF6CF982FE82F96FD9C
:10122000E0958E2F8F7096FD8F5FE695E695E6959B
:10123000E670F0E0E355FE4F2181289F202D812D9F
:10124000112422952F708295807F282B8081820F18
:1012500097FD819580580895FC019B01009719F432
:10126000832F80780895AC0197FF04C04427552749
:10127000481B590BB901640F751F37FD0FC0C90119
:10128000841B950BA5E0880F991FAA95E1F70E9492
:10129000463080E2861BF7FD81950895CB0165E01D
:1012A000880F991F6A95E1F7BA01621B730B0E94C0
:1012B000463080E6EFCF1F93CF93DF93D62FC72F13
:1012C000182F822F86950E940D09805887FD8195E1
:1012D000880F282F219F212D1124822F6D2F7C2FE5
:1012E000DF91CF911F9108951F93172F922FE42F15
:1012F000F0E0EE0FFF1FEF50FE4F408124EE429FC3
:10130000412D1124272F30E050E0445E5F4FA92F7C
:10131000B0E0FA01E91BF109F7FF03C0FD01E41B8E
:10132000F50B93E0EE0FFF1F9A95E1F72E1B3F0B95
:1013300037FF02C020E030E0722F719F712D112421
:101340001F9108951F93182FE42FF0E0EE0FFF1F59
:10135000EF50FE4F408134EE439F412D112490E029
:1013600050E0445E5F4FE22FF0E0DA01A21BB109CA
:101370009D01B7FF03C09F01241B350B43E0220FE3
:10138000331F4A95E1F7821B930B97FF02C080E061
:1013900090E0282F219F212D1124822F1F91089545
:1013A0000F931F93CF93DF93D62F172FC82FBA0118
:1013B000C901212F201B022F0E942C09982F990F61
:1013C000990F782F791B700F719F712D11246D2F3C
:1013D0008C2FDF91CF911F910F910895FF920F9362
:1013E0001F93CF93DF93D62FC72F182FBA01C901B0
:1013F000F12EF01A0E942C09982F990F990F082F9F
:10140000091B0F0D019F012D11246D2F7C2F802FA3
:10141000CDB7DEB7E5E00C941830EF920F931F9331
:10142000CF93DF93D62F172FC82FBA01C9010E19FA
:10143000010F0E942C09702F781B719F712D1124B0
:101440006D2F8C2FDF91CF911F910F91EF90089509
:10145000EF920F931F93CF93DF93D62FC72F182FA1
:10146000BA01C9010E19010F0E942C09081B019F26
:10147000012D11246D2F7C2F802FDF91CF911F9193
:101480000F91EF900895622F0895E42FF0E0EE0F92
:10149000FF1FEF50FE4F6081621B0895E42FF0E0C4
:1014A000EE0FFF1FEB54FE4F65AD621B0895322F08
:1014B00050E0FA01EE0FFF1FEB54FE4F95AD905236
:1014C00097FD9195440F551FFA01EF50FE4F208173
:1014D000231B330B290F311D97FD3A95620F089599
:1014E000EF920F931F9310E09801220F331F200FEC
:1014F000311F359527956E2D620F1F910F91EF903B
:1015000008950F93CF93DF93D72FC82FF90147FD8D
:10151000419528E330E0241B310947FD3395229F94
:10152000A001239F500D500D1124EE9FC001EF9F8D
:10153000900D900D1124840F951F0E94DD08982FA7
:10154000990F692F680F600F7D2F8C2FDF91CF913E
:101550000F9108950F93CF93DF93D72FC82FBA0120
:10156000C9010E942C09682F600F7D2F8C2FDF91FD
:10157000CF910F910895EF920F93CF93DF93D72FD1
:10158000C82FBA01C9010E190E942C09602F681BCF
:101590007D2F8C2FDF91CF910F91EF9008950F93B6
:1015A0001F93522F10E0F801EE0FFF1FEB54FE4F78
:1015B000A5ADA052BB0B9D015203F001539FF00D4E
:1015C0001124000F111FD801AF50BE4F2C9120578E
:1015D000330B4203D001439FB00D11249F012A0F0A
:1015E0003B1F37FF02C021583F4F220F232F221FDE
:1015F000330B620F1F910F9108950F931F93522F7A
:1016000010E0F801EE0FFF1FEB54FE4FA5ADA05206
:10161000BB0B9D015203F001539FF00D1124000FED
:10162000111FD801AF50BE4F2C912057330B4203EE
:10163000D001439FB00D11249F012A0F3B1F37FF9C
:1016400002C0215C3F4F96E0359527959A95E1F7CA
:10165000620F1F910F9108950F931F93A42F10E015
:10166000F801EE0FFF1FEF50FE4F9081905797FD4E
:101670009195000F111FF801EB54FE4F05AD00527C
:10168000110B2003A001219F500D112428E330E00D
:10169000291B310997FD33951A2F1203F001139F6F
:1016A000F00D11244E0F5F1F9A01220F331F240FDC
:1016B000351F37FF02C021583F4F220F232F221F13
:1016C000330B620F1F910F9108954095282F429F71
:1016D000412D1124842F0895409520E4429F412DEF
:1016E0001124640F0895EF92FF920F93970195E0F4
:1016F000099F200D311D1124211591E0390710F0AB
:101700002FEF30E02095382F320F08F43FEF832F72
:101710000F91FF90EF900895EF92FF920F93E00EDC
:10172000F11CF90137FF03C0F195E195F10924E0BF
:10173000EE0FFF1F2A95E1F7E11531E0F30714F0F2
:10174000EFEFF0E0DA0157FF03C0B195A195B109C1
:1017500094E0AA0FBB1F9A95E1F7AE17BF070CF4F0
:10176000FD01EE0DFF1DE11591E0F90710F0EFEF1F
:10177000F0E02E2F2095382F320F08F43FEF832F03
:101780000F91FF90EF900895EF92FF920F93CF93F8
:10179000DF93972FEA01F901D701093430F4A01B38
:1017A000B109A11521E0B20710F0AFEFB0E0289623
:1017B000619740F0AF01485F5F4F4131510510F034
:1017C000AFEFB0E02A2F2095382F320F08F43FEF0B
:1017D000832FF7FD33969F013595279535952795EE
:1017E00060917305620F792FDF91CF910F91FF9078
:1017F000EF900895EF92FF920F939701201B31090C
:10180000211541E0340710F02FEF30E0322F3095F2
:10181000482F430F08F44FEF842F620F0F91FF9072
:10182000EF900895EF92FF920F939701201B3109DB
:10183000211591E0390710F02FEF30E02095382F77
:10184000320F08F43FEF832F0F91FF90EF90089530
:10185000FC0180913F05811104C0E232F1050CF0DA
:10186000B297CF010E94A60C0895FF920F931F9389
:10187000CF93DF93182F062FF42EC0E0D0E02F2D4A
:10188000402F612FCE010E94280C2196C434D1052F
:10189000B1F7CDB7DEB7E5E00C9418309EE0899F34
:1018A000802D1124980F953408F094E420913F0581
:1018B000211104C0823228F482E20895933208F0A4
:1018C00092E208959091FC04292F30E07091FD047C
:1018D000A9014F5F5F4F437055277417150689F0B4
:1018E00026503B4F60FB87F9F90184839F5F93701B
:1018F0009093FC048091FA048F5F8093FA0481E056
:10190000089580E0089544B183E3861B8F7021E041
:1019100030E0B90102C0660F771F8A95E2F7CB016C
:10192000962F9095942394B995B1892B85B90895F4
:1019300083B190E023E3261B2F7002C09595879515
:101940002A95E2F7817008956E9A0895FC01EE0FD2
:10195000FF1FE80FF91FE059FC4F6183408322838A
:101960000895FC01680F791F8FEF41E3919189275A
:1019700028E030E0982F990F87FF09C0892F84272E
:1019800021503040B9F7E617F70781F70895892FFE
:10199000F7CF80913E05811559F0E0914605F09111
:1019A0004705309729F00190F081E02D09950895C1
:1019B00080E00895A3E0B0E0E0EEFCE00C94FF2F9F
:1019C0009C0180916E0390916F0382179307A1F0A1
:1019D00030936F0320936E03E0914605F091470525
:1019E000309751F083E089833B832A830084F1851B
:1019F000E02DCE01019609952396E2E00C941B3070
:101A0000A3E0B0E0E6E0FDE00C94FF2F9C018091A4
:101A10006C0390916D0382179307A1F030936D03CF
:101A200020936C03E0914605F0914705309751F003
:101A300084E089833B832A830084F185E02DCE01F5
:101A4000019609952396E2E00C941B309C01FC0161
:101A500032968FEF90E04191461751F08F3F19F485
:101A6000411101C0892F9F5F9630A9F78F3F09F47C
:101A70000895280F311D87FD3A95F9016283089575
:101A80009C01FC013296285F3F4F8191861302C072
:101A9000DF011E92E217F307C1F7089580910A0152
:101AA00008952FB7F8948091680390916903A091ED
:101AB0006A03B0916B032FBF08952FB7F89460911C
:101AC00068037091690380916A0390916B032FBF43
:101AD0000895CF92DF92EF92FF9280913E0581159B
:101AE00059F00E945D0D6B017C01C701B601FF90AA
:101AF000EF90DF90CF9008950E945D0DC09040055B
:101B0000D0904105E0904205F0904305C60ED71EE7
:101B1000E81EF91EEACF08950895FC019B0180910B
:101B20005C0390915D038617970740F0672B29F4BB
:101B30008091E8008E778093E800C90140E000972B
:101B400041F4411106C08091E80082FF2FC080E07F
:101B50000895209180042115A9F12530A9F1209143
:101B6000E80023FD2DC02091E80022FDECCF20915C
:101B7000E80020FFE4CF3091F3002091F2000097BD
:101B800019F02830310558F041E02830310509F0CE
:101B900040E02091E8002E772093E800D0CF4191DB
:101BA0004093F10001972F5F3F4FE9CF8091800470
:101BB000811541F0853041F08091E80083FFC3CF6B
:101BC00081E0089582E0089583E0089580915603AE
:101BD00087FF13C08091E80082FF06C08091E80073
:101BE0008B778093E8000895809180048111F2CF73
:101BF0000895809180048115D9F38091E80080FFD9
:101C0000F8CF8091E8008E77ECCF2091E4003091FE
:101C1000E50095E6A9012091EC00822F817020FF5C
:101C200006C08091E80080FF06C080E00895209102
:101C3000E80022FD1AC080918004811589F085306A
:101C400089F08091EB0085FD0FC02091E400309178
:101C5000E50042175307F9F29A95E1F684E00895FA
:101C600082E0089583E0089581E00895E8EDF0E0D2
:101C700080818E7F80831092E2001092DA001092B1
:101C8000E100A0EEB0E08C9181608C9380818F7731
:101C9000808319BCA7EDB0E08C918E7F8C938081FE
:101CA0008F7E8083109255030895EF92FF920F93D9
:101CB0001F93CF93DF937C01809104010E944E0C0F
:101CC000C82F192F609176056695669521E0620F01
:101CD00008F46FEF80914504909146040E94D30868
:101CE000082FD0E0C11740F0812F0E94C608CDB761
:101CF000DEB7E6E00C941730FE01E758FD4F808117
:101D0000909105018923811589F060917305709187
:101D1000740580917505202F4C2FF70109950E94BD
:101D20003F08472F282FCE010E94280C2196DACF9A
:101D3000AF92BF92DF92EF92FF920F931F93CF93D8
:101D4000DF935C01809104010E944E0CC82F192F73
:101D500060917605669580914504909146040E94B5
:101D6000D308D82ED0E0CE01880F991F9C012B54A8
:101D70003E4F79011C1709F068F4812F0E94C608B4
:101D8000DF91CF911F910F91FF90EF90DF90BF9067
:101D9000AF900895FE01E758FD4F808190910501B5
:101DA00089238115B9F0F70125AD2052330B44ADDD
:101DB0004057550B609173057091740580917505BE
:101DC0000D2DF50109950E943F08472F282FCE01C0
:101DD0000E94280CF2E0EF0EF11C2196CBCFA0E080
:101DE000B0E0E5EFFEE00C94F32F3C01809104019C
:101DF0000E944E0CC82F192F609176056695809130
:101E00004504909146040E94D308F82ED0E0CE01FC
:101E1000880F991F9C012B543E4F69011C1709F034
:101E200040F4812F0E94C608CDB7DEB7EEE00C94D7
:101E30000F30FE01E758FD4F808190910501892305
:101E4000811571F1F60184AD282F2057330B59010C
:101E500085ADE82FE052FF0B4F01AA9C9001AB9C8F
:101E6000300D300D1124EE9FC001EF9F900D900DAD
:101E70001124820F931F0E94DD08082F60917305C3
:101E80007091740580917505EF2C9401A501F30103
:101E900009950E943F08472F282FCE010E94280C49
:101EA000F2E0CF0ED11C2196B9CFA4E0B0E0EBE573
:101EB000FFE00C94F92F6C01809104010E944E0CFC
:101EC0008B83F92E60917605669566958091450421
:101ED000909146040E94D308182F80E4810F0E943D
:101EE0000D0980588983812F0E940D0980588A83AB
:101EF0009B81892F90E09C838B839B819F1538F079
:101F00008F2D0E94C6082496E8E00C941530EB81D2
:101F1000FC81E758FD4F808190910501892381154F
:101F2000A1F0609173057091740580917505E12EA3
:101F30000B812A814981F60109950E943F08472FAC
:101F4000282F8B819C810E94280C8B819C8101967B
:101F5000D2CFA0E0B0E0EFEAFFE00C94F62F7C01D6
:101F6000809104010E944E0CC82FB92E2091760555
:101F700031E0230F08F42FEF30E040E050E06FEF46
:101F80007FEF80E090E00E942B316901D0E0A22E2B
:101F90009D2C9C2FCB1540F08B2D0E94C608CDB7F1
:101FA000DEB7EBE00C941230FE01E758FD4F808164
:101FB000209105018223811519F14091550441506A
:101FC000042E000C550B47FF1DC00A2D192D6091E2
:101FD000760521E0620F08F46FEFC8010E94D30874
:101FE000AC01609173057091740580917505F701DE
:101FF00009950E943F08472F282FCE010E94280CE8
:102000002196C7CFFA01EB5AFB4F818989130AC089
:10201000FA01EE0FFF1FEB5AFB4F018D128D0C15CD
:102020001D05A8F241505109CECFA8E0B0E0EBE188
:10203000F0E10C94EF2F582E6A837B83809104018A
:102040000E944E0C292E209155042C83E82FF0E09D
:10205000F887EF83CF01880F991F9C012B543E4FC7
:102060006901852D90E0FC013196FE83ED838F811F
:10207000821538F0822D0E94C6082896E2E10C9461
:102080000B30EF81F885E758FD4F80819091050175
:1020900089238115F9F040907305F0917405F98357
:1020A0002D813E812B5A3B4F3901352C10E0FC81AC
:1020B0003F16D0F020917505129F112D1124642D2B
:1020C0007981812F0E943F08472F282F8F81988583
:1020D0000E94280C2F8138852F5F3F4F38872F8330
:1020E00032E0C30ED11CC3CFF30181913F01F60151
:1020F000A4ACA81ABB0885ACF3018781881A99089B
:10210000AA9C9001AB9C300D300D1124889CC0011D
:10211000899C900D900D1124820F931F0E94DD0861
:10212000082F6091760521E0620F08F46FEFF3014C
:10213000EE0FFF1FE555F440858996890E94D3086C
:102140007C019401A501642D7981812FEA81FB81B5
:102150000995462E7983182F3394A9CF982F909301
:10216000E900891771F07091EC002091ED00509119
:10217000F00021FD09C09F5F973089F78093E90047
:102180000895762F242F50E03091EB003E7F30935E
:10219000EB003091ED003D7F3093ED003091EB008E
:1021A00031603093EB007093EC002093ED0050937E
:1021B000F0002091EE0027FDDECF0895A0E0B0E012
:1021C000E4EEF0E10C94F92FC8EDD0E088818F7E29
:1021D0008883E7EDF0E080818160808384E082BFC6
:1021E00081E08093550388818E7F888302EE10E022
:1021F000F80110821092DA0081EEC82ED12CF6017F
:10220000108288818F77888388818068888388811D
:102210008F7D888319BC1092800410925403109211
:102220007F041092530390EEE92EF12CF701808188
:102230008B7F808388818160888342E060E080E0DA
:102240000E94AE10F60180818E7F8083F80180812C
:1022500081608083808188608083F70180818E7FA8
:102260008083888180618883CDB7DEB7E8E00C94F5
:102270001530E09188059091870527E0E91302C0A9
:1022800080E00895AE2FB0E02E9FF0011124E757B3
:10229000FA4F3181361306C03081381303C03581BF
:1022A000341304C0FD013196E770E8CF81E0089552
:1022B0009FB7F89410925F039FBF90918004943071
:1022C00009F047C02091E9009091EC002F7097959C
:1022D00099279795922B23E02093E9002091EB001A
:1022E00020FF34C02091EE0027FF30C020915E0314
:1022F000211521F02091E80025FF28C010925E03EF
:1023000026E03091E80035FF14C08093F100809101
:10231000E80085FD27C08091E80080FFFCCF809118
:10232000E8008E778093E8009F709093E90080E04A
:10233000089530918004343049F43091EB0035FD3C
:1023400005C02A9541F481E080935E039F709093CD
:10235000E9008FEF0895EFE9FFE03197F1F700C052
:102360000000CFCF8FB7F89421E020935F038FBF99
:10237000DBCF3EB13F7B2EB120644FB7F89480E7AE
:1023800093E0FC010196508168E02EB9000000C086
:1023900057FF3EB9550F000000C000C000C03EB955
:1023A00000C06A9591F754E08C33950751F74FBF01
:1023B0008FE594E00197F1F700C0000008950F93B6
:1023C0001F93CF93DF938B01EA01909180049430A7
:1023D00059F58093E9008FEF9091E80095FD06C0D4
:1023E00095ED9A95F1F700008A95B1F78091E80094
:1023F00085FF1AC00E94050E811111C08091E8006E
:1024000085FD06C08091E8008E778093E800F2CFCA
:10241000F80181918F018093F100219779F78091E4
:10242000E8008E778093E800DF91CF911F910F91A4
:102430000895CF93DF93D82FC92F48E050E0682F3D
:10244000792F81E00E94DF1188E0ED2FFC2FA0E6BC
:10245000B3E001900D928A95E1F7DF91CF91089555
:10246000BC0143E050E082E00E94DF110895A0E04B
:10247000B0E0EDE3F2E10C94F42FE82E992E862ED5
:10248000772E042FF52E590180913D059AE0C92E33
:10249000D12C8A3018F0CC24C394D12CC1E0D0E0E8
:1024A000682D772D8E2D992DF5010995182F811105
:1024B00026C02196CC16DD0694F0CC9FC001CD9F9E
:1024C000900D900D112420E030E045E34A95F1F79E
:1024D00000002F5F3F4F28173907B9F7E1CF8091F0
:1024E0007B0580FF0CC0FF920F9386E695E09F93DB
:1024F0008F930E947E040F900F900F900F90812F6A
:10250000CDB7DEB7EDE00C94103090917205892FB5
:10251000837021E0382F3227832F9C7F892B809373
:10252000720510925B0180917A05816080937A0533
:1025300080917B0580FF12C01F923F938FE591E051
:102540009F938F9386E892E09F938F930E947E04DF
:102550000F900F900F900F900F900F900895909103
:1025600072059370911551F1853208F084E28F73F2
:10257000982F990F990F209172052370922B9093A9
:10258000720510925B0190917A05916090937A05A3
:1025900090917B0590FF12C01F928F938FE591E081
:1025A0009F938F9382EC91E09F938F930E947E0480
:1025B0000F900F900F900F900F900F9008958091B3
:1025C0007205869586958F5F853208F081E00E94BE
:1025D000AF12089580917205869586958A9509F4C3
:1025E00084E20E94AF1208959C018091720583706D
:1025F000811559F12093730560937405413A08F0F1
:1026000040EA4093750580917A05816080937A0550
:1026100080917B0580FF19C01F924F931F926F938B
:1026200033273F932F938FE591E09F938F938FE90B
:1026300091E09F938F930E947E048DB79EB70A9678
:102640000FB6F8949EBF0FBE8DBF0895E2E7F5E088
:10265000818190E04381628108960E94F41208957E
:10266000E2E7F5E08181438162818850990B0E9405
:10267000F4120895E2E7F5E0628120E1620F08F4C8
:102680006FEF8181438190E00E94F4120895E2E7A8
:10269000F5E0628120E1621B08F460E08181438102
:1026A00090E00E94F4120895E2E7F5E0438120E112
:1026B000420F08F44FEF8181628190E00E94F41292
:1026C0000895E2E7F5E0438120E1421B08F440E091
:1026D0008181628190E00E94F412089580937605D2
:1026E00090917A05916090937A0590917B0590FF87
:1026F00012C01F928F938FE591E09F938F9380E894
:1027000091E09F938F930E947E040F900F900F9003
:102710000F900F900F9008958091760520E1382F4B
:10272000320F08F43FEF832F0E946E1308958091BB
:10273000760520E1382F321B08F430E0832F0E9409
:102740006E130895CF93C82F8091850582FB99273A
:1027500090F99C17F9F0C0FB82F980938505609190
:1027600084057091850584E090E00E94253182E027
:102770000E94620580917B0580FF0CC01F92CF9361
:1027800085E097E09F938F930E947E040F900F90B7
:102790000F900F90CF9108950F931F93CF93DF93D6
:1027A00080917C0590918605892B40917D0541158E
:1027B00089F090E020E433E0F90150812F5F3F4F32
:1027C00051119F5F53E026343507B1F791111092F4
:1027D0007D05842B80933E0348E050E068E475E07B
:1027E0008EE393E00E94BC30892B09F44DC088E051
:1027F000EEE3F3E0A8E4B5E001900D928A95E1F7ED
:10280000E0914605F09147053097F1F10280F381A0
:10281000E02D8EE393E0099580917B0582FF34C023
:1028200080FF0EC080913E031F928F938CEE96E046
:102830009F938F930E947E040F900F900F900F90A4
:10284000CEE3D3E006EE16E080917B0580FF0BC05F
:102850008A811F928F931F930F930E947E040F9083
:102860000F900F900F90219683E0C434D80761F742
:1028700080917B0580FF08C084EE96E09F938F9344
:102880000E947E040F900F90DF91CF911F910F91C6
:10289000089510927C05E0E4F3E086E0DF011D92EC
:1028A0008A95E9F780E090E00E94DA0C80E090E001
:1028B0000E94000D109286050E94CC1308950E947C
:1028C00049142FEF84E39CE0215080409040E1F7D1
:1028D00000C0000088E19CE00FB6F894A8958093B2
:1028E00060000FBE90936000FFCFAAE2B0E0EBE77C
:1028F000F4E10C94FE2F86E593E0FC010196209113
:10290000F100208323E08E359207B9F780915703B9
:10291000893009F45AC0C8F4823009F4B6C0833053
:1029200009F485C0813091F18091E80083FFEAC00D
:1029300080915603909157039A3008F0E3C0E92F35
:10294000F0E0E057FE4C0C945A308A3009F48CC009
:102950008B3051F780915603813231F780915A03C1
:1029600090915B03892B01F78091E800877F80932A
:10297000E8000E94E60D81E090915803911101C09A
:1029800080E080930B010E944914CECF80915603C2
:10299000813A51F68091E800877F8093E80080912A
:1029A0005A0390915B03892B61F060E080E090E036
:1029B00070E00E948D0D8091E8008B778093E80095
:1029C000B3CF68E080E693E0F3CF80915603813285
:1029D00009F0AACF80915A0390915B03029708F007
:1029E000A3CF8091E800877F8093E8008091E80082
:1029F00082FF18C09091F3008091F200029731F4A9
:102A00008091F100813011F0863021F48091F10045
:102A100080930A018091E8008B778093E8000E9400
:102A2000E60D82CF809180048111E0CF7DCF80912F
:102A30005603813A09F078CF80915A0390915B0355
:102A4000892B09F071CF8091E800877F8093E8009F
:102A50008091E80080FFFCCF80910B018093F10012
:102A60008091E8008E77D9CF80915603813209F0AA
:102A70005BCF8091E800877F8093E8000E94E60D9D
:102A800080915903809309014FCF80915603813A79
:102A900009F04ACF8091E800877F8093E800809119
:102AA000E80080FFFCCF80910901D8CF803889F001
:102AB000823841F580915A038F70873018F58093E2
:102AC000E9008091EB0085FB882780F91092E900EE
:102AD00006C080917F04880F90915303892B9091B9
:102AE000E800977F9093E8008093F1001092F10046
:102AF0008091E8008E7723C0811116C08091580321
:102B0000813011F18091E80083FF0AC08091E800D4
:102B1000877F8093E8008091EB0080628093EB00D8
:102B2000AA96E3E00C941A30823061F78091580342
:102B3000811589F01092E9008091E800877F8093E9
:102B4000E8000E94E60DDECF81E0933009F080E0DE
:102B500080937F04EFCF80915A038F702FEF280F5F
:102B6000263080F68093E9002091EB0020FFE2CF31
:102B7000933031F48091EB0080628093EB00DACFE8
:102B80009091EB0090619093EB0021E030E0A9017F
:102B900002C0440F551F8A95E2F74093EA00109255
:102BA000EA008091EB008860E8CF8111ABCF1091F3
:102BB00058031F778091E3008078812B8093E30096
:102BC0008091E800877F8093E8000E94E60D809165
:102BD000E80080FFFCCF8091E30080688093E300F1
:102BE00083E0111101C082E0809380048BCF805874
:102BF000823008F087CF80915803909159038C3D23
:102C000053E0950799F583E08A838AE289834FB779
:102C1000F894DE01139620E03EE051E2E32FF0E06D
:102C200050935700849120FF03C082958F703F5FBF
:102C30008F708A30C8F0895C90E08D939D932F5FF0
:102C4000243161F74FBF8091E800877F8093E800CF
:102C50006AE270E0CE0101960E948D0D8091E8003D
:102C60008B778093E8004ECF805DE6CF292F332706
:102C70002330310509F44DC078F52130310509F4D0
:102C80007CC084E590E0ECEDF1E02230310509F004
:102C900039CF2091E800277F2093E80020915C0342
:102CA00030915D038217930708F49C0140E02115E1
:102CB000310509F067C0411165C08091E80082FDCF
:102CC000CDCF80918004811549F2853039F2809111
:102CD000E80083FFF2CFC2CF80915A0390915B034B
:102CE00021323105D9F12232310509F00BCF833081
:102CF000910508F007CFFC01EE0FFF1FEF55FE4FC7
:102D00000190F081E02D82569E4FDC018C9190E085
:102D100011C09C013327813089F022303105B1F098
:102D2000232B09F0EFCEEEE6F2E0E4918E2F90E057
:102D3000EEE6F2E0009709F4E5CEABCFEEE5F2E087
:102D4000E4918E2F90E0EEE5F2E0F4CFE2E4F2E0E1
:102D5000E4918E2F90E0E2E4F2E0ECCF8330910535
:102D600008F0D0CEFC01EE0FFF1FE955FE4F019099
:102D7000F081E02D89E090E08CCF82E190E0E0E30B
:102D8000F2E087CF80918004811509F467CF853008
:102D900009F464CF8091E80083FD60CF8091E80062
:102DA00082FD8BCF8091E80080FF81CF9091F3006E
:102DB0008091F2002115310519F08830910550F00D
:102DC00041E0089709F040E08091E8008E77809319
:102DD000E8006DCF44914093F100319621503109C4
:102DE0000196E8CF803809F08DCE8091E800877F8A
:102DF0008093E800809154038093F10079CE811193
:102E000081CE10915803123008F07CCE8091E800FA
:102E1000877F8093E800109354030E94E60D1115FC
:102E2000D1F084E08093800442E061EC81E00E9474
:102E3000AE1042E261EC82E00E94AE1042E261EC30
:102E400083E00E94AE1080918004843051F482E0CF
:102E500080930C0157CE8091E30087FDE2CF81E0A3
:102E6000E1CF81E0F5CFCF93C82F8115A9F08CEF8A
:102E70008C0F813A98F4E0E4F3E086E493E021914A
:102E8000C217B1F18E179F07D1F76C2F8EE393E035
:102E90000E94260D0E94CC13CF91089580E28C0FE2
:102EA000883068F4C77021E030E001C0220FCA9575
:102EB000EAF780917C05822B80937C05EBCF8BE534
:102EC0008C0F833038F42C2F2452330BC9010E940D
:102ED000DA0CE2CFC85ACB31F8F6EC2FF0E0EE0F67
:102EE000FF1FEB5FFC4F808191810E94000DD4CFCA
:102EF0006C2F8EE393E00E94400D0E94CC13C5CF4F
:102F0000682F811541F18CEF860F813A38F48EE3FA
:102F100093E00E94400D0E94CC13089580E2860F3A
:102F2000883048F4677081E001C0880F6A95EAF73D
:102F30000E947A05F0CF8BE5860F833028F480E07D
:102F400090E00E94DA0C0895685A6B3120F480E01A
:102F500090E00E94000D08950F931F93CF93C82F08
:102F60008B010E9433170115110539F48C2F0E9433
:102F70008017CF911F910F9108958FE99FE00197DE
:102F8000F1F700C0000001501109EDCF80E09091F1
:102F9000FD042091FC04291739F1E92FF0E0E250FB
:102FA000FB4F808187FB222720F98F779F5F9370EB
:102FB0009093FD049091FB049F5F9093FB04811517
:102FC00049F0813079F460E070E08EE4211108C0AE
:102FD0008BE406C060E070E089EA211101C08AEA52
:102FE0000E94AC1781E0D3CF0895811539F09091FC
:102FF0007C05892B80937C050E94CC130895811554
:1030000021F00E947A050E94CC130895EF92FF925E
:103010000F931F93CF93DF93C62FD42F122F8115B9
:10302000A9F0609370050E94510D90935103809315
:103030005003C77081E001C0880FCA95EAF70E946B
:10304000F517CDB7DEB7E6E00C9417308091700528
:10305000681334C0E0905003F09051030E94510D6A
:103060008E199F09883C910548F500E20D0FCD1798
:10307000A9F0C770FF24F3948F2D01C0880FCA9563
:10308000EAF70E94FF17083048F48D2F877001C0BF
:10309000FF0C8A95EAF78F2D0E94F51760E070E02B
:1030A000812F0E94AC17083060F6D77081E001C014
:1030B000880FDA95EAF70E94FF17C3CFC77081E047
:1030C00001C0880FCA95EAF7F6CFA0E0B0E0EBE6C2
:1030D000F8E10C94F92F7C01FC018481811531F118
:1030E00061E0C7010E94C707EC01F7018581FE017D
:1030F000E851FC47E730F105A8F5E656FE4C0C9484
:103100005A3026E241EE61EE0E9406188091830556
:103110008770811559F0F7018581811539F080910B
:10312000850582FF03C082E00E946205CDB7DEB74D
:10313000E8E00C94153027E245EE65EEE5CF26E297
:1031400041EE60EEE1CF27E245EE64EEDDCF26E210
:1031500041EE62EED9CF27E245EE66EED5CF28E20A
:1031600041E0EBCF811509F45CC4109270059E011B
:1031700030572332310508F064C484E090E00E94A7
:10318000F1309093850580938405FE01E150F0476E
:10319000E232F10520F4EF55FE4C0C945A30809148
:1031A0008405816080938405609184057091850514
:1031B00084E090E00E9425310E944914A7CF8091BD
:1031C0008505886080938505EFCF809184058260B6
:1031D000E9CF809184058460E5CF80918405886083
:1031E000E1CF809185058160EDCF8091850582607A
:1031F000E9CF809184058061D5CF8091840580627C
:10320000D1CF809184058064CDCF0E9449148091F4
:1032100084058068C7CF809184058C60C3CF80917E
:1032200085058360CFCF809184058E7FBBCF809151
:103230008505877FC7CF809184058D7FB3CF80912F
:1032400084058B7FAFCF80918405877FABCF809142
:1032500085058E7FB7CF809185058D7FB3CF809117
:1032600084058F7E9FCF809184058F7D9BCF809139
:1032700084058F7B97CF0E944914809184058F77B6
:1032800091CF80918405837F8DCF809185058C7F40
:1032900099CF80918405992782FF939590FB82F9BD
:1032A00090FB83F97FCF80918505982F909590FBB7
:1032B00080F990FB81F986CF90918405892F8F7BCF
:1032C00096FF80646FCF0E94491490918405892FE6
:1032D00097FB87F9805866CF61E08EE090E00E940E
:1032E000073162CF60E0F9CF90918405892F8F7EFE
:1032F00094FF806157CF90918405892F8E7F90FF36
:10330000816050CF90918505892F877F93FF8860DA
:1033100059CF9272FE01E052F847EB30F10508F008
:1033200064C0ED53FE4C0C945A3090917C0592721F
:10333000FE01E054F847ED30F10508F056C0E253C5
:10334000FE4C0C945A300E948512E0CE9115B1F1DA
:103350000E94EA12DBCE9115B1F10E943013D6CE55
:103360009115B1F10E944713D1CE9115B1F10E9490
:103370006113CCCE9115B1F10E949713C7CE809105
:1033800072058370811102C010925B0180917205F9
:103390008C7F81608093720580917A058160809333
:1033A0007A05B4CE809172058370811110925B0111
:1033B000809172058C7FEECF911551F20E94DF1241
:1033C000A5CE911551F20E942613A0CE911551F26F
:1033D0000E943A139BCE911551F20E94541396CE3F
:1033E000911551F20E948C1391CEC737FCE7DF078D
:1033F000F9F0C8372CE7D20751F19E01205E324523
:103400002032310550F581113FC0CF7181E090E04D
:10341000FC0102C0EE0FFF1FCA95E2F7EF016E2F0D
:1034200083E090E00E940731CE010E9497046ECEA7
:10343000811549F081E00E94A10443E062E081E04F
:103440000E942B0563CE81E00E94B104F6CF811566
:1034500011F082E0F0CF82E0F7CF8115A9F0C33000
:10346000FCE7DF0709F4CBC008F072C0C1303CE7CD
:10347000D30709F4CAC0C2308CE7D80709F4A9C041
:10348000C115DC4709F476C0F701858100811181FF
:10349000811509F4C5C0C8010E949307C82F682F81
:1034A000C8010E94C304B8018C2F0E9482050E94AB
:1034B0009006D82FC92FF701C580068102950F709D
:1034C000809183058770811501F1DC2CC114F1F026
:1034D000892F807F803461F080E28D0F8830A8F0E2
:1034E000892F807E803221F4D23078F0011569F086
:1034F0008091850582FF09C082E00E94620580916B
:1035000083058770DD24D3948111D12C8C2F829573
:103510008F70883009F473C108F0A3C0843008F0BC
:1035200084C01C2F1F70823008F4ACC0C07FC03232
:1035300011F01295107FD11509F4DAC0D13009F4D9
:1035400023C1C11409F42DC1011509F4EFC0AFC0A6
:10355000CB35ECE7DE0709F461C0CC35FCE7DF07CB
:1035600009F455C081E0CA35DC4709F08DCF0E94CF
:10357000A2138ACF0E9449143FEF84E39CE03150AC
:1035800080409040E1F700C0000081E08093E000BF
:1035900080E28093D8001092C900EFE1FEE43197F9
:1035A000F1F700C0000087E090EBDC018093C805D4
:1035B0009093C905A093CA05B093CB0588E19CE020
:1035C0000FB6F894A895809360000FBE90936000AA
:1035D000FFCF90917B05892F8E7F90FF8160809334
:1035E0007B0580FF09C08CE297E09F938F930E9438
:1035F0007E040F900F908ACD8AE197E0F6CF6FEFAF
:103600007FEF80E090E00E9425310E945F1480915E
:103610008505002482FF0394802DA9CF80E0A7CFE9
:10362000C8010E94F804C82F3ECF843009F4CAC0F4
:10363000D11409F41BC18091830580FD17C1F701E6
:1036400015828695869586950E94A104C7010E94E1
:103650006518809183058695869586950E94B104AC
:1036600005C1893009F45BC18A5F8F70823000F731
:10367000D23F09F065C18C2F8F71C1105EC10E94CD
:10368000A104F2C0C03110F01295107FC114B9F03E
:10369000111569F080E28D0F883010F0D11109C04A
:1036A00080917C05812B80937C050E94CC138D2F0B
:1036B0002FC080918605812B80938605F6CF8D2FB4
:1036C0000E948017111509F4B3CF80E28D0F883066
:1036D00010F0D11104C0812F0E947A0506C0109508
:1036E000809186058123809386050E94CC13A0CF0C
:1036F0008091850582FD16C0C11469F0111539F05D
:1037000080917C05812B80937C050E94CC1380E006
:103710000E9433178DCF80E00E948017111509F4A5
:1037200087CFD9CFC114A1F0011104C0812F0E940D
:10373000F5177ECF013009F07BCF80917D05912F69
:103740009823191709F474CF812B80937D0570CFCE
:1037500001116ECF812F0E94FF1790917D05812F5F
:103760008923811529F0812F8095892380937D05F8
:1037700080917E05912F9823911509F459CF1095CA
:10378000182310937E0554CFC11421F0063008F0A1
:103790004FCFCCCF053008F04BCF812F0E94FF17C1
:1037A00047CF0115D1F3D93349F4FFEF27EE33E0CA
:1037B000F15020403040E1F700C000008D2F0E9402
:1037C000801736CF8C2F869586958370811569F08A
:1037D000813009F02DCF8D2F9C2F9370C11002C026
:1037E00080E090E00E94000D23CF8D2F9C2F9370DE
:1037F000C11002C080E090E00E94DA0C19CF8C2F3B
:103800008370811146C0C1102FC04D2F429546953F
:103810004770440F440F2D2F2F7030E0042E02C04C
:10382000220F331F0A94E2F780E090E0D4FF09C032
:103830008FE090E002C0880F991F4A95E2F78095CB
:103840009095C695C695C370C230D1F0C330A9F02B
:1038500040917F0550918005C13069F0822B932BF8
:10386000842395230E9497040E94C90C60E0C7013D
:103870000E94C7075BCC242B352B822B932BF2CFD6
:10388000822B932B20917F053091800582279327EF
:10389000E9CFC11491F1C0FFE7CF4D2F4295469576
:1038A0004770440F440F2D2F2F7030E0042E02C0BC
:1038B000220F331F0A94E2F780E090E0D4FF09C0A2
:1038C0008FE090E002C0880F991F4A95E2F780953B
:1038D0009095C695C695C370C230C1F0C33099F0BB
:1038E0004091810550918205C13059F0822B932B74
:1038F000842395230E949C04B7CF823008F4B4CF70
:10390000CCCF242B352B822B932BF4CF822B932BD4
:10391000209181053091820582279327EBCFCF70CC
:10392000C11439F08C2F0E94A1048D2F0E94F5172D
:103930009BCF8D2F0E94FF178C2F0E94B10494CF34
:1039400070F4D03FC9F0D13F91F0C11409F455C0D3
:10395000011509F44FC08D2F0E94331785CFD33F37
:1039600019F1D43F91F79091850592FD2BC08C2FD2
:103970008F71C11411F383CEC114A1F0053008F08A
:1039800073CFCF7181E090E0FC0102C0EE0FFF1F0A
:10399000CA95E2F7EF0180918105909182058E270B
:1039A0009D27A8CF0630EBCF80E090E0C11409F44A
:1039B000A1CFCF7181E090E002C0880F991FCA9516
:1039C000E2F798CFC11461F08C2F8F7192FF57CE20
:1039D000982F990F990F990F9360909383054FCE6D
:1039E00081E00E946205023008F43ECF82E00E942E
:1039F00062053ACF8C2F8F7142CE011579F0D93301
:103A000049F4FFEF27EE33E0F15020403040E1F77A
:103A100000C000008D2F0E94801726CF8C2F8F7141
:103A20008CCFC631FCE7DF0709F07FCC80917105B0
:103A300065E3811101C069E28EE393E00E94400DCD
:103A400016C090917C05C6312CE7D20709F061CCF5
:103A50009A7A81E0911101C080E08093710565E35D
:103A6000911101C069E28EE393E00E94260D0E944D
:103A7000CC134CCB8091C705803178F48091C6057A
:103A8000811559F0E0918805209187053091C20594
:103A90004091C10557E02E1301C008956E2F70E0CC
:103AA0005E9FF0011124DF01A757BA4F14968C9145
:103AB0001497811561F111968C911197831327C08A
:103AC0008C91841324C015968C91159781111FC079
:103AD00012968D919C91A091C305B091C4058A1B4B
:103AE0009B0B883C910598F48091C7058F7080618D
:103AF0008093C705E157FA4F80818F708061808382
:103B000081EC95E00E9465180E9458050895FB011C
:103B10003196E770C0CFADE0B0E0E1E9FDE10C9493
:103B2000F42F8C0186E0F801DE01189601900D92C9
:103B30008A95E1F7F801F580C48081EC882E85E054
:103B4000982E7090C505711020C0C114D9F0F114E1
:103B500009F41CC1C8010E94F607811509F416C1B9
:103B600087E0F801D40101900D928A95E1F7F1E028
:103B7000CF1206C08091C1059091C2050E94E7074F
:103B80000E943A1DFF24F39454C0E080A280B380C9
:103B9000D090C6058091C3059091C4059501281B5E
:103BA000390BD11409F4BAC0283C310508F090C093
:103BB000C11441F39091C205C1808091C705803145
:103BC00008F058C0C91214C09091C1059E1110C0D0
:103BD000F1104AC08F7080618093C70581EC95E039
:103BE0000E9465188091C705F8018683F12C21C0D9
:103BF000F1103AC040E06C2D8E2D0E94391140E04A
:103C00006C2D8E2D0E943911F82E8111EFCF8885F1
:103C100099850E94E707292F22952F70903470F420
:103C20009F702230A0F09115B1F0F801968190318B
:103C300090F48F2D2D96EDE00C9410302A5F2F70AC
:103C4000223068F0C8010E946518FD2CF2CF911552
:103C500011F0811571F3805E883058F3F3CF803F07
:103C600040F3815F8330F9CF8091C70581608093F5
:103C7000C705BCCFC91207C09091C1059E1103C0F2
:103C8000F11409F46CC0C8010E94F607811509F40B
:103C90007DC0F11409F47AC08091C705803278F0B4
:103CA0002091C1053091C2053A832983BC82AB8241
:103CB0007D821E828F83CE0101960E94651887E067
:103CC000F801A1ECB5E001900D928A95E1F758CF8B
:103CD0008091C705803150F481EC95E00E94651811
:103CE00087E0F40111928A95E9F780CFC11409F4B5
:103CF00049CF2091C20591812913C5CF9091C1056B
:103D00009E11C1CFF110BFCF8683C8010E946518F4
:103D100087E0F40111928A95E9F734CF283C310508
:103D2000F8F6C11409F42ECFF11481F19091C20577
:103D30008181981321C08091C1058E111DC0809191
:103D4000C70580FD10C0803170F08683807F803F82
:103D500039F08681982F907F905F8F70892B8683B2
:103D6000C8010E94651887E0F801A1ECB5E0019058
:103D70000D928A95E1F706CFC8010E94F6078111DE
:103D80009ECF8091C70581608093C705C8010E94BE
:103D90006518F8CEABE1B0E0E0EDFEE10C94FD2F4C
:103DA0004E8B5F8B688F798F8A8F192F9B8F911124
:103DB000109286051D8A86E0FE017696DE011F962A
:103DC00001900D928A95E1F70A8D011561F00B8B38
:103DD0001C8B61E0CE010F960E94C70761E0CE0107
:103DE0000F960E94C7070B8B1C8B87E0FE013F9646
:103DF000DE01189601900D928A95E1F7CE010896A2
:103E00000E948B1D811128C0209187053091880563
:103E100087E0FE013896DE01119601900D928A9599
:103E2000E1F78C858115C1F0822F90E001968770B3
:103E3000992738171906D9F097E0929FD0011124DD
:103E4000A757BA4FFE01319601900D929A95E1F76E
:103E5000809387050E94580517E08091880590910E
:103E60008705891312C06B96E4E00C9419300E9408
:103E70004914109287051092880587E0E1ECF5E07F
:103E8000DF011D928A95E9F7E7CF189FC001112441
:103E900087579A4F0E948B1D811529F380918805C1
:103EA00090E001968770992780938805D6CFA6E089
:103EB000B0E0EDE5FFE10C94FD2F0E94510D8C0167
:103EC00080914405909145058017910779F01982FA
:103ED0001A820E94510DBC0149815A8180E090E014
:103EE0000E94CA1E10934505009344052696E4E0FF
:103EF0000C941930A1E0B0E0E0E8FFE10C94EF2F62
:103F0000362E4A01222EC32E5701682E880F7708BD
:103F1000C3010E947B2FD82E811509F46CC0C30108
:103F200033E0880F991F3A95E1F7FC01ED5DFE4FF4
:103F30002381422F50E0211511F041E050E08D5DCA
:103F40009E4FFC01648175816F5D7A4FCE010196B1
:103F50000E94C930F40140805180628073800E94C9
:103F60005D0D641975098609970964367105810527
:103F7000910538F4B501C8010E94B10C99818917E7
:103F8000D1F1E32C032C000CFF08C7010E947B2F0A
:103F9000D82E811106C0D12C8D2D2196E2E10C94F2
:103FA0000B30C70123E0880F991F2A95E1F7FC0128
:103FB000ED5DFE4F2381422F50E0A216B10408F4BC
:103FC000A5018D5D9E4FFC01648175816F5D7A4F07
:103FD000822D9C2D0E94C930B501C8010E94B10CF0
:103FE00099818913D8CF0E945D0DF401608371839C
:103FF00082839383D1CFA501B801822D9C2D0E948D
:10400000C930CACFA5E0B0E0E8E0F0E20C94F92FA7
:104010006B0185E0E82EF12C02E215E09E012F5F96
:104020003F4F4DE155E061E080E00E947A1F81152D
:1040300049F095E0FE013196A8E1B5E001900D92BE
:104040009A95E1F795E0E8E1F5E0D60101900D924F
:104050009A95E1F72596E8E00C941530A8E0B0E0D9
:10406000E4E3F0E20C94FB2F88E0E82EF12C08E268
:1040700015E09E012F5F3F4F44E155E063E082E091
:104080000E947A1F182F811589F190912705809140
:104090001305981759F100E090912B0580912A059E
:1040A0008917F1F0E92FF0E0EB5DFA4F878187FB8C
:1040B000662760F99F5F937090932B059091290577
:1040C0009F5F909329058F770E94620C082F8111C2
:1040D000E3CF84E090E00E947B2F102F182302C0D2
:1040E0000111F7CF8091270580931305812F289622
:1040F000E6E00C941730CF92DF92EF92FF921F937D
:10410000CF93DF9300D000D0CDB7DEB7C0900E05BF
:10411000D0900F05E0901005F09011050E945D0D04
:104120006C197D098E099F0911E0643671058105BE
:10413000910578F10E94690DDC01CB010296A11D69
:10414000B11D89839A83AB83BC8380914C0190918C
:104150004D018F5D9A4F20914B01422F50E0253049
:1041600010F044E050E0BE016F5F7F4F0E94C93005
:1041700085E090E00E947B2F182F811551F00E945E
:104180005D0D60930E0570930F058093100590935D
:104190001105812F0F900F900F900F90DF91CF910D
:1041A0001F91FF90EF90DF90CF9008958F929F9294
:1041B000AF92BF92EF92FF920F931F93CF93DF9333
:1041C000CDB7DEB729970FB6F894DEBF0FBECDBFCF
:1041D00088E0E2E7F5E08E010F5F1F4FD801019004
:1041E0000D928A95E1F780910905898749E050E0B1
:1041F00064E375E0C8010E94BC307C0180900A0530
:1042000090900B05A0900C05B0900D050E945D0DDF
:10421000681979098A099B09E02F312F64367105E5
:104220008105910510F4EF2811F1809154019091CE
:1042300055018F5D9A4F20915301422F50E02A3053
:1042400010F049E050E06E2F732F0E94C93086E0D5
:1042500090E00E947B2F811559F00E945D0D6093C4
:104260000A0570930B0580930C0590930D0581E072
:1042700029960FB6F894DEBF0FBECDBFDF91CF9168
:104280001F910F91FF90EF90BF90AF909F908F90F4
:104290000895A3E0B0E0EFE4F1E20C94EF2F482E94
:1042A00080910801841123C0909172059370209130
:1042B000070130E081E09217130609F480E0809353
:1042C00006018091770590910501981739F0809348
:1042D000050140E060E080E00E94350C25E24216D6
:1042E00088F4E42DF0E0E552FE4C0C945A3081E065
:1042F000E6CF80910601811529F040E060E080E082
:104300000E94350C80E0909104019F5F909304011E
:1043100081110CC082E080935B01809106018111C4
:1043200005C0411003C083E080935B012396E2E166
:104330000C940B30809104010E944E0C8983192F3C
:104340006091730570917405809175050E943F0816
:10435000062FF72EE82E5981452F50E05B834A83C4
:104360007A81171709F010F4812F42C0EA81FB818E
:10437000E758FD4F8081909105018923811539F01F
:104380002E2D4F2D602F8A819B810E94280C6A81DF
:104390007B816F5F7F4F7B836A83E2CF80910401D3
:1043A0000E944E0C8983E92E809173058A830091C7
:1043B000740510917505682F702F812F0E943F089A
:1043C000D62EC72EB82E809176056A81680F702F81
:1043D000812F0E943F08162F072FF82EB981AB2F8F
:1043E000B0E0BB83AA83FA81EF1609F020F48E2D8A
:1043F0000E94C60888CFEA81FB81E758FD4F808183
:10440000309105013823311561F02F2D402F612F98
:1044100080FD03C02B2D4C2D6D2D8A819B810E9428
:10442000280CEA81FB813196FB83EA83DCCF809103
:1044300004010E944E0C192FF0907405E090750550
:104440002091760500E4029F012D1124282F30E0F1
:104450003B832A835A81151709F008F485CFEA8136
:10446000FB81E758FD4F80819091050189238115DB
:10447000C1F0EA81FB81EE0FFF1FEB54FE4F85ADCB
:1044800082958F7060917305809F600D11247F2D40
:104490008E2D0E943F08472F282F8A819B810E94E2
:1044A000280C4A815B814F5F5F4F5B834A83D2CF89
:1044B000809104010E944E0C192FF0907405E09039
:1044C00075052091760500E4029F012D1124682FC7
:1044D00070E07B836A839A81191709F008F444CF4E
:1044E000EA81FB81E758FD4F808190910501892386
:1044F0008115E1F0EA81FB81EE0FFF1FEB54FE4FC7
:1045000024AD209F9001112465E0359527956A958B
:10451000E1F760917305620F7F2D8E2D0E943F0899
:10452000472F282F8A819B810E94280C8A819B819A
:1045300001969B838A83CFCF8BE599E00E94550E2D
:10454000E2CE84E799E0FACF82EA99E0F7CF80EDF6
:1045500099E00E94980ED7CE8EEE99E0FACF8DE0CA
:104560009AE00E94EF0ECFCE88E29AE0FACF83E481
:104570009AE0E4CF85E49AE0E1CF8EE49AE0DECFE2
:1045800087E59AE0DBCF80E79AE0EBCF81E89AE01D
:10459000E0CF8AEA9AE0DDCF8BEB9AE0E2CF8FECB6
:1045A0009AE00E94550FAFCE8DEF9AE0FACF8CE2E1
:1045B0009BE0F7CF809104010E944E0C782E092FCA
:1045C00080910601811561F040E060E080E00E948A
:1045D000350CEBE8F4E08CE3DF011D928A95E9F7F6
:1045E0008091040181111BC0E0914104F0914204CB
:1045F000FB83EA830E94510D2A813B81821B930B2E
:1046000021E08931910508F420E020934004499786
:1046100030F00E94510D9093420480934104C12CCC
:10462000D12C812C35E5532E4AEA642E3324339461
:104630007601912CF701EB54FE4F30813983371509
:1046400008F442C0301708F03FC0432F50E05B83AE
:104650004A83FA01E758FD4F808190910501892333
:10466000811509F430C0B70165577B4F5B01DB0151
:104670001C91612F252D621B08F460E07091740578
:10468000362D310F08F43FEF40917505232F220F8F
:10469000230F2E5F249F212D1124362D361B632FCF
:1046A000822F0E943F08472F282F8A819B810E94DA
:1046B000280C80914004811531F0432D141B08F41F
:1046C00010E0D5011C9383949394BFEFEB1AFB0A7F
:1046D000E6E09E12AFCFF6E3CF16D10411F4802F9F
:1046E00087CE26E0C20ED11C3EE0831608F4A0CF90
:1046F000F6CF50907505E52CF12CA701440F551FFE
:104700004E0D5F1D56954795569547955B834A8399
:104710005A8159838FEF90E0B7010E944630362EC0
:1047200080910601811571F040E060E080E00E9418
:10473000350CEBE8F4E08CE3DF011D928A95E9F794
:1047400010924404809143048F5F809343048BE86C
:10475000C82E84E0D82EA12CB12C3701EA81FB8130
:104760006E1A7F0A45018601212C8091440482291A
:1047700081114BC00E94AC30853595400CF045C08E
:10478000D6015C92F401EB54FE4FE081EF3FD9F08B
:10479000D8012C91F0E0B981B21708F045C030E0A3
:1047A0004A815B81241B350B249FC001259F900DFE
:1047B000349F900D1124B3010E943230262F452DD5
:1047C000CF010E94280C23940A5F1F4F56E0850EEC
:1047D000911C6AE02612C9CF7FEFA71AB70A8FEFA4
:1047E000C81AD80A96E0A916B10409F0BBCF809187
:1047F0004304381202C010924304809144048F5F36
:104800008D31F8F4809344047DCDF80180818115C9
:1048100009F4B8CF851508F0B5CF9091430439124B
:10482000B1CF81508083AECF2E9DC0012F9D900DC2
:1048300011246A817B810E943230462F20E060E0A3
:10484000BFCF109244042BEB34E089E041E954E0FF
:104850009FEF950D8901EBE8F4E0893021F466A91A
:10486000561201C096ABD8016D918D01651548F0C7
:104870007D01B1E0EB1AF108D7019C93D8011596A0
:104880005C9231964E175F0741F7815026503109EF
:104890008111E0CF37CD85E69BE00E94A90F33CD93
:1048A0008CE69BE0FACF8091550421E0382F321B33
:1048B00008F430E0832F63E77BE00E94151023CDDE
:1048C00063E77BE080E0F9CF8091550421E0482F39
:1048D000421B08F440E0842F6CE87BE0EECF6CE8EC
:1048E0007BE0F0CF8091550421E0582F521B08F453
:1048F00050E0852F64EC7BE0E0CF64EC7BE0E2CF1E
:104900008091550421E0682F621B08F460E0862F37
:104910006AEF7BE0D2CF6AEF7BE0D4CF8091550481
:1049200021E0782F721B08F470E0872F62E17CE0B1
:10493000C4CF62E17CE0C6CF8F929F92AF92BF92CC
:10494000CF92DF92EF92FF9280903C0490903D04D2
:10495000A0903E04B0903F0480913E05811509F47B
:1049600051C00E945D0D6B017C01C818D908EA088E
:10497000FB080E94690D282F60933C0470933D044E
:1049800080933E0490933F04A091C704E7ECF4E0C9
:104990008A2F30E088248A94982CA12CB12C8C1872
:1049A0009D08AE08BF08A31330C08093C704809150
:1049B000090581113AC030917205832F83708115EA
:1049C00019F0832F8695869530915B013230E9F19D
:1049D00070F5311137C01092040160934504709353
:1049E0004604209347049093480489E2E7ECF4E0FE
:1049F000A5E5B4E001900D928A95E1F781E08093FE
:104A00005B0117C00E94690DAECF418D528D841697
:104A10009506A104B10420F481503F5F3296C3CFC4
:104A20004C0D5D1D528F418FF8CF80E0CDCF3330DC
:104A3000B9F0FF90EF90DF90CF90BF90AF909F9034
:104A40008F9008950E944921F4CF809308018091AE
:104A500072058370809307010E94B91183E0CFCF64
:104A600080917A05811551F048E050E067E170E0EF
:104A700082E795E00E94F73010927A05C0904504D5
:104A8000D0904604E0904704F090480480913E05A1
:104A9000811571F00E945D0D6C197D098E099F09C9
:104AA000603171058105910520F210925B01C1CF43
:104AB0000E94690DF1CFCF93C82F811591F080919D
:104AC000090581110EC00E944921109208018091B0
:104AD00072058370809307010E94B91183E080936F
:104AE0005B01C0930905CF910895AFE0B0E0EBE71B
:104AF000F5E20C94F02FFE0131968AE0DF011D9261
:104B00008A95E9F783E1E82E81E0F82E8F0198E19C
:104B1000692E91E0792E2F01AA24A394B12C33E1C0
:104B2000832E31E0932EF70181917F018F3F09F4AD
:104B30003EC0F894E82FE295EF70F0E021A18F706D
:104B4000A50102C0440F551F8A95E2F7CA01922FB2
:104B5000982B91A392A18095892382A3789400C079
:104B6000EDE0F1E031E0312C21912F3F79F0A22FDF
:104B7000A295AF70A05EB0E08C9190E02F7002C063
:104B8000959587952A95E2F780FF82C080E0382AC4
:104B9000330F8E169F0641F7F70182918F3F11F078
:104BA0000E94220850EA5A95F1F7D8013C920F5F13
:104BB0001F4F6E147F0409F0B6CF4AE050E0B201F7
:104BC00089E494E00E94BC306C01892B41F08AE0BA
:104BD000F201A9E4B4E001900D928A95E1F7009109
:104BE000540410E00F571B4FC114D10409F452C0F4
:104BF00081E080934F030E94510D90934E03809368
:104C00004D0380913E05811509F4C9C07E01BBE0CA
:104C1000EB0EF11C85E0F70111928A95E9F7D0902F
:104C20003D05FAE0DF1608F059C022E030E246E622
:104C300051E0B701C8010E943712811509F473C011
:104C40002EE230E243E751E0B701C8010E9437127B
:104C5000811509F468C02BE730E24BE751E0B7015A
:104C6000C8010E943712811509F45DC026ED30E2BB
:104C700046E851E0B701C8010E943712811509F4D6
:104C800052C04AE0D41608F07DC010923D0567C0BE
:104C9000832F7DCF80914F03811509F4B2CFE0902F
:104CA0004D03F0904E030E94510D8E199F090597F8
:104CB00008F4A7CF45E050E069E474E0C8010E9421
:104CC000BC30892B41F085E0E9E4F4E0D8010190A3
:104CD0000D928A95E1F710924F0393CFA0904A036B
:104CE000B0904B030E94510D8A199B09843F91405B
:104CF00008F09BCF80914C03811509F43FC085E0FB
:104D0000D7011D928A95E9F710924C03A0915304A4
:104D1000B0E0AF57BB4F85E0FE013B9601900D928E
:104D20008A95E1F72BC080913D058F3F99F40E9451
:104D3000510D90934B0380934A0380917B0580FF34
:104D4000D9CF8AE491E09F938F930E947E040F90C5
:104D50000F90D0CF8F5F80933D058A3040F78091D0
:104D6000530490E045E050E0B7018F579B4F0E94FD
:104D7000BC3021E020934C03892B41F62F96E1E1D2
:104D80000C940C3080917B0580FF7FCF87E391E00E
:104D90009F938F930E947E040F900F9076CF85E0B3
:104DA000F801A2E2B5E001900D928A95E1F765E085
:104DB00070E082E295E00E94B10C8093210588E0CA
:104DC000EAEFF4E0A8E2B5E001900D928A95E1F7F0
:104DD00068E070E088E295E00E94B10C80932705BE
:104DE000C0903005D0903105E0903205F090330549
:104DF0008091460390914703A0914803B0914903E5
:104E0000C816D906EA06FB06B1F0C0924603D09256
:104E10004703E0924803F09249030E945D0DC61AD1
:104E2000D70AE80AF90AC0924005D0924105E092FB
:104E30004205F092430588E0E4E3F5E0A2E7B5E03F
:104E400001900D928A95E1F780913C050E945B25C7
:104E500095CFCDB7DEB768970FB6F894DEBF0FBE1B
:104E6000CDBF85B7806885BF85B7806885BF84B7AB
:104E7000877F84BF0FB6F894A89580916000886101
:104E800080936000109260000FBE80E890E00FB643
:104E9000F89480936100909361000FBE81E080934D
:104EA0000C0188E591E190933D0380933C030E94BF
:104EB000360E0E94DE108091E20084608093E20052
:104EC000789480918004811599F08091E900109187
:104ED000EC008F70179511271795182B1092E90089
:104EE0008091E80083FD0E9475141F701093E90003
:104EF00082E084BD93E095BD9AEF97BD80936E00EC
:104F000010924005109241051092420510924305FF
:104F10008091D80080618093D8002AE12A95F1F72A
:104F200000C08091D900182F117080FD04C00E942C
:104F3000360E1092800410933E0555985D988FE8C8
:104F400091E00197F1F700C0000088274D99839503
:104F500080933F058093180180913E0581110E9446
:104F60008D2EEAEFF4E088E0DF011D928A95E9F7E3
:104F70008091180191E089278093040580911801A0
:104F8000909307058091180160E080E00E94830CF7
:104F900061E080E00E94830CEFE8F1E03197F1F7E7
:104FA00000C0000010E080910705181708F4EFC159
:104FB00080911801811124C085E0E1E9F1E0DE0172
:104FC000199601900D928A95E1F785E0FE013996D8
:104FD000A3E1B1E001900D928A95E1F786E0E7E95F
:104FE000F1E0DE01119601900D928A95E1F786E0DD
:104FF000FE013196ADE0B1E001900D928A95E1F7A6
:105000008091180190E0811101C095E090935404C3
:1050100085E0891B8093530403E111E078E1E72EDA
:1050200071E0F72ED8018D918D018F3F11F00E9414
:105030002208E016F106B1F70DE011E063E1E62E7B
:1050400061E0F62EF80181918F018F3F11F00E94EF
:105050002208E016F106B1F78AE0E1E8F4E0DF01AA
:10506000282F1D922A95E9F7E9E4F4E0DF011D926B
:105070008A95E9F780E090E00E94F130853E9E4FEE
:1050800009F461C065EE7EEF80E090E00E9425317A
:1050900060E082E090E00E94073181E090E0909330
:1050A000800580937F0561E083E090E00E940731F6
:1050B00060E074E184E090E00E94253160E086E0E9
:1050C00090E00E94073160E087E090E00E940731A5
:1050D00040E050E0BA0188E090E00E94193160E0C1
:1050E00083E290E00E94073160E08CE090E00E9453
:1050F000073160E08DE090E00E94073119821A824A
:105100001B821C821D821E821F82188648E050E08E
:1051100067E170E0CE0101960E94F73040E050E078
:10512000BA018FE190E00E94193140E050E0BA01ED
:105130008FE090E00E94193140E050E0BA0183E135
:1051400090E00E94193182E090E00E94E930809363
:105150007B0584E090E00E94F13090938505809378
:10516000840583E090E00E94E93090E00E9497047B
:105170000E94A40C1092550440E150E06FEF70E0E3
:105180008EE694E00E94D2301092C70440E150E0D5
:105190006FEF70E080EE94E00E94D23081E0809367
:1051A0007A0548E050E067E170E082E795E00E9410
:1051B000D93010927A05809172058430B8F58091CB
:1051C0007B0580FF14C08DEC94E09F938F930E9429
:1051D0007E0480917B050F900F9080FF08C08DEBBF
:1051E00093E09F938F930E947E040F900F9085E32E
:1051F0008093720580915C0190915D01A0915E01A8
:105200008093730590937405A09375058FE7809341
:1052100076058FEF8093770548E050E067E170E016
:1052200082E795E00E94F73010927A0580917B0525
:1052300080FF89C083EB94E09F938F930E947E044C
:1052400080917B050F900F9080FF7DC0809172054B
:1052500083701F928F9384E994E09F938F930E94B1
:105260007E0480917B050F900F900F900F9080FF30
:105270006AC080917205869586951F928F9387E705
:1052800094E09F938F930E947E0480917B050F9002
:105290000F900F900F9080FF56C0809173051F9262
:1052A0008F9389E594E09F938F930E947E04809171
:1052B0007B050F900F900F900F9080FF44C080915E
:1052C00074051F928F938BE394E09F938F930E94BA
:1052D0007E0480917B050F900F900F900F9080FFC0
:1052E00032C0809175051F928F938DE194E09F935A
:1052F0008F930E947E0480917B050F900F900F90FA
:105300000F9080FF20C0809176051F928F938FEFC2
:1053100093E09F938F930E947E0480917B050F9072
:105320000F900F900F9080FF0EC0809177051F9215
:105330008F9381EE93E09F938F930E947E040F9052
:105340000F900F900F9080913E05811102C00E9436
:10535000902E89E191E090934705809346058091D6
:105360008004853009F067C080917B0580FF08C00C
:1053700082E295E09F938F930E947E040F900F909E
:1053800008E110E040E4F42E52E1E52E48C060E070
:10539000812F0E94980C082F61E0812F0E94980CA9
:1053A000E12FF0E0EB5FFA4F880F802B80831F5FC7
:1053B000FACD80918004843031F10E949C2481E0F8
:1053C0000E945B2510927E040FB6F894A895009376
:1053D00060000FBEF092600083B7817F846083BF5E
:1053E00083B7816083BF7894889583B78E7F83BFAE
:1053F0000FB6F894A8958091600088618093600052
:10540000109260000FBE0E947525E1E8F4E08191E2
:10541000811129C22BE834E02E173F07C1F7809194
:105420008004853009F4C5CF0E9449140E94C90C3C
:1054300080E00E945B250E94752540EF54E05F8765
:105440004E8781E894E0998B888BDC01FA01919179
:105450008D912AEF34E02E173F0709F4FFC098170B
:10546000B1F380917B0581FD16C130913E053C8BE7
:10547000612C712CF12CA889B9899D90B98BA88BCE
:10548000EE85FF858191FF87EE87891509F4DCC0E1
:10549000282E29246301E12C88248394822D8821DD
:1054A000811509F4C6C0392C3820FC89F115A1F00A
:1054B000E982FA820E94510D9C838B8321E02D8327
:1054C00091E0311001C090E09E8349815A816B8147
:1054D0007C818D810E94CA1E311439F0F601EB5493
:1054E000FE4F80818F3F09F018C1412C042D10E040
:1054F0008091C704840D9927991F09976CF1E8E002
:10550000AE2EB12CA01AB10AB80168537B4FA50189
:1055100088EC94E00E94C930B80160537B4FA5012C
:1055200080ED94E00E94C930A501440F551FB801D9
:10553000660F771F60527B4F80EE94E00E94C93067
:10554000B80168527B4FA50188ED94E00E94C930F4
:1055500088E084198093C704411419F14091C7046D
:10556000852D90E0242F30E0F901E953FB4FDC0159
:10557000AA0FBB1FAF50BE4F5C915183880F991F7C
:10558000DC01AB54BE4FDD968C918187518AF901C5
:10559000EE0FFF1FE953FB4F128E118E4F5F4093AA
:1055A000C704311409F445C0809172058C7F8C3595
:1055B00009F03FC0F601EB54FE4F80818F3F09F4A4
:1055C00038C0A12CB12C312C90E09C01220F331F4C
:1055D000A9014F505E4F5E8B4D8BD901AE50BE4F2F
:1055E000B88FAF8BF601E557FB4FFB8BEA8B85013C
:1055F000412CF801EB54FE4F80818F3F61F0F31096
:1056000090C0E4108EC0AA89BB892C9130E2230F90
:1056100008F42FEF2C9343940F5F1F4FF6E04F12C7
:10562000E8CF339426E0A20EB11C3CE3A316B104EC
:10563000F1F6E394880C4FEFC41AD40A56E0E51251
:105640002DCFEE85FF859292F39486E0680E711C53
:105650009AE0F91210CF0E94690D04C0981301CF8F
:105660000E94571F0E949C24F0903E05F11419F0EF
:105670000E94C617F82E80911205811551F01092E4
:1056800012058091FC048093FD048091FA048093BC
:10569000FB04E12CBBC087E495E09F938F930E94AD
:1056A0007E040F900F90B1E8CB2EB4E0DB2E00E02B
:1056B00010E082E4882E85E0982E9FE3A92E95E0E5
:1056C000B92E2AE3E22E25E0F22E38E3632E35E0F0
:1056D000732E1F930F939F928F920E947E04BF920E
:1056E000AF920E947E04D6018D916D010E948704C5
:1056F0001F928F93FF92EF920E947E047F926F928F
:105700000E947E040F5F1F4F0FB6F894DEBF0FBEDE
:10571000CDBF0A301105E9F6A8CE582E4424439493
:10572000E5CE90E0AD89BE894C91FC01EE0FFF1FE4
:10573000EF50FE4F2081421B550BEF89F88D2081E1
:10574000880F991FFC01EB54FE4F85AD281B330BCE
:10575000449FB001459F700D700D1124229FC00120
:10576000239F900D900D1124860F971F0E94DD0836
:10577000382F893208F04FCF28E2231B08F420E0AD
:10578000F801E557FB4F213108F020E13081320F5D
:1057900008F43FEF30833FCF61E08E2D0E94980CDC
:1057A000182F60E08E2D0E94980C110F812B0E2D6A
:1057B00010E0D801AB5FBA4FEC919E2F9370891720
:1057C00021F1EE0FEE0FE82BEC93809104058E0D86
:1057D000EF70F0E0E354FD4F0E5F1A4FD080D80118
:1057E0009C91D90EB4E060E0DB1624F4EDEFDE16F8
:1057F0001CF461E00E94620C8D2DDD0C990B64E0BD
:1058000070E00E944630D8018C93E39480910705A4
:10581000E81610F280913E05811519F00E94C61716
:10582000F82AF1100E94690D0E94C90C182F80916E
:105830000805181709F493CD109308050E945D0D13
:1058400080917B058570853009F089CD1F921F936B
:1058500086E595E09F938F930E947E040F900F90B2
:105860000F900F907CCD80917F04811509F4D7CDE6
:1058700030E139BDE9BC09B400FEFDCF8091D8000C
:105880008F7D8093D8008091E00082608093E0005B
:105890008091E00081FDFCCF0E944914C0CD1F9291
:1058A0001FB61F9211248F939F93AF93BF93809144
:1058B0007E04811113C08091680390916903A091C7
:1058C0006A03B0916B034196A11DB11D80936803DB
:1058D00090936903A0936A03B0936B03BF91AF9158
:1058E0009F918F911F901FBE1F90189578941F92C3
:1058F0001FB61F9211248F939F93AF93BF938091F4
:10590000680390916903A0916A03B0916B030196BB
:10591000A11DB11D8093680390936903A0936A034E
:10592000B0936B03BF91AF919F918F911F901FBE5A
:105930001F9018951F920F920FB60F9211242F935C
:105940003F934F935F936F937F938F939F93AF9307
:10595000BF93EF93FF938091E10082FF15C0809188
:10596000E20082FF11C08091E1008B7F8093E10013
:10597000209152032F5F822F62E30E9426309115FF
:1059800009F4DCC0209352038091DA0080FF2CC020
:105990008091D80080FF28C08091DA008E7F8093AC
:1059A000DA008091D90080FFFEC080E189BD82E1EC
:1059B00089BD09B400FEFDCF81E08093800482E7B9
:1059C00092E09F938F930E947E04809155030F90E5
:1059D0000F90811109C00E94360E0E94DE10809146
:1059E000E20084608093E2008091E10080FF22C0A9
:1059F0008091E20080FF1EC08091E2008E7F809344
:105A0000E2008091E20080618093E2008091D80002
:105A100080628093D80019BC85E0809380048AE777
:105A200092E09F938F930E947E0483E080930C0109
:105A30000F900F908091E10084FF37C08091E200C9
:105A400084FF33C080E189BD82E189BD09B400FED5
:105A5000FDCF8091D8008F7D8093D8008091E100A8
:105A60008F7E8093E1008091E2008F7E8093E20040
:105A70008091E20081608093E2008091540381155F
:105A800009F49FC084E0809380048EE792E09F93A6
:105A90008F930E947E04809180040F900F90843039
:105AA00009F097C082E080930C018091E10083FFB0
:105AB00034C08091E20083FF30C08091E100877F95
:105AC0008093E10082E080938004109254038091DF
:105AD000E1008E7F8093E1008091E2008E7F8093D1
